{
  "_format": "hh-sol-artifact-1",
  "contractName": "AggregatorProxyETH",
  "sourceName": "contracts/oracleETH.sol",
  "abi": [
    {
      "inputs": [
        {
          "internalType": "address",
          "name": "_aggregator",
          "type": "address"
        }
      ],
      "stateMutability": "nonpayable",
      "type": "constructor"
    },
    {
      "anonymous": false,
      "inputs": [
        {
          "indexed": true,
          "internalType": "int256",
          "name": "current",
          "type": "int256"
        },
        {
          "indexed": true,
          "internalType": "uint256",
          "name": "roundId",
          "type": "uint256"
        },
        {
          "indexed": false,
          "internalType": "uint256",
          "name": "updatedAt",
          "type": "uint256"
        }
      ],
      "name": "AnswerUpdated",
      "type": "event"
    },
    {
      "anonymous": false,
      "inputs": [
        {
          "indexed": true,
          "internalType": "uint256",
          "name": "roundId",
          "type": "uint256"
        },
        {
          "indexed": true,
          "internalType": "address",
          "name": "startedBy",
          "type": "address"
        },
        {
          "indexed": false,
          "internalType": "uint256",
          "name": "startedAt",
          "type": "uint256"
        }
      ],
      "name": "NewRound",
      "type": "event"
    },
    {
      "anonymous": false,
      "inputs": [
        {
          "indexed": true,
          "internalType": "address",
          "name": "from",
          "type": "address"
        },
        {
          "indexed": true,
          "internalType": "address",
          "name": "to",
          "type": "address"
        }
      ],
      "name": "OwnershipTransferRequested",
      "type": "event"
    },
    {
      "anonymous": false,
      "inputs": [
        {
          "indexed": true,
          "internalType": "address",
          "name": "from",
          "type": "address"
        },
        {
          "indexed": true,
          "internalType": "address",
          "name": "to",
          "type": "address"
        }
      ],
      "name": "OwnershipTransferred",
      "type": "event"
    },
    {
      "inputs": [],
      "name": "acceptOwnership",
      "outputs": [],
      "stateMutability": "nonpayable",
      "type": "function"
    },
    {
      "inputs": [],
      "name": "aggregator",
      "outputs": [
        {
          "internalType": "address",
          "name": "",
          "type": "address"
        }
      ],
      "stateMutability": "view",
      "type": "function"
    },
    {
      "inputs": [
        {
          "internalType": "address",
          "name": "_aggregator",
          "type": "address"
        }
      ],
      "name": "confirmAggregator",
      "outputs": [],
      "stateMutability": "nonpayable",
      "type": "function"
    },
    {
      "inputs": [],
      "name": "decimals",
      "outputs": [
        {
          "internalType": "uint8",
          "name": "",
          "type": "uint8"
        }
      ],
      "stateMutability": "view",
      "type": "function"
    },
    {
      "inputs": [],
      "name": "description",
      "outputs": [
        {
          "internalType": "string",
          "name": "",
          "type": "string"
        }
      ],
      "stateMutability": "view",
      "type": "function"
    },
    {
      "inputs": [
        {
          "internalType": "uint256",
          "name": "_roundId",
          "type": "uint256"
        }
      ],
      "name": "getAnswer",
      "outputs": [
        {
          "internalType": "int256",
          "name": "answer",
          "type": "int256"
        }
      ],
      "stateMutability": "view",
      "type": "function"
    },
    {
      "inputs": [
        {
          "internalType": "uint80",
          "name": "_roundId",
          "type": "uint80"
        }
      ],
      "name": "getRoundData",
      "outputs": [
        {
          "internalType": "uint80",
          "name": "roundId",
          "type": "uint80"
        },
        {
          "internalType": "int256",
          "name": "answer",
          "type": "int256"
        },
        {
          "internalType": "uint256",
          "name": "startedAt",
          "type": "uint256"
        },
        {
          "internalType": "uint256",
          "name": "updatedAt",
          "type": "uint256"
        },
        {
          "internalType": "uint80",
          "name": "answeredInRound",
          "type": "uint80"
        }
      ],
      "stateMutability": "view",
      "type": "function"
    },
    {
      "inputs": [
        {
          "internalType": "uint256",
          "name": "_roundId",
          "type": "uint256"
        }
      ],
      "name": "getTimestamp",
      "outputs": [
        {
          "internalType": "uint256",
          "name": "updatedAt",
          "type": "uint256"
        }
      ],
      "stateMutability": "view",
      "type": "function"
    },
    {
      "inputs": [],
      "name": "latestAnswer",
      "outputs": [
        {
          "internalType": "int256",
          "name": "answer",
          "type": "int256"
        }
      ],
      "stateMutability": "view",
      "type": "function"
    },
    {
      "inputs": [],
      "name": "latestRound",
      "outputs": [
        {
          "internalType": "uint256",
          "name": "roundId",
          "type": "uint256"
        }
      ],
      "stateMutability": "view",
      "type": "function"
    },
    {
      "inputs": [],
      "name": "latestRoundData",
      "outputs": [
        {
          "internalType": "uint80",
          "name": "roundId",
          "type": "uint80"
        },
        {
          "internalType": "int256",
          "name": "answer",
          "type": "int256"
        },
        {
          "internalType": "uint256",
          "name": "startedAt",
          "type": "uint256"
        },
        {
          "internalType": "uint256",
          "name": "updatedAt",
          "type": "uint256"
        },
        {
          "internalType": "uint80",
          "name": "answeredInRound",
          "type": "uint80"
        }
      ],
      "stateMutability": "view",
      "type": "function"
    },
    {
      "inputs": [],
      "name": "latestTimestamp",
      "outputs": [
        {
          "internalType": "uint256",
          "name": "updatedAt",
          "type": "uint256"
        }
      ],
      "stateMutability": "view",
      "type": "function"
    },
    {
      "inputs": [],
      "name": "owner",
      "outputs": [
        {
          "internalType": "address payable",
          "name": "",
          "type": "address"
        }
      ],
      "stateMutability": "view",
      "type": "function"
    },
    {
      "inputs": [
        {
          "internalType": "uint16",
          "name": "",
          "type": "uint16"
        }
      ],
      "name": "phaseAggregators",
      "outputs": [
        {
          "internalType": "contract AggregatorV2V3Interface",
          "name": "",
          "type": "address"
        }
      ],
      "stateMutability": "view",
      "type": "function"
    },
    {
      "inputs": [],
      "name": "phaseId",
      "outputs": [
        {
          "internalType": "uint16",
          "name": "",
          "type": "uint16"
        }
      ],
      "stateMutability": "view",
      "type": "function"
    },
    {
      "inputs": [
        {
          "internalType": "address",
          "name": "_aggregator",
          "type": "address"
        }
      ],
      "name": "proposeAggregator",
      "outputs": [],
      "stateMutability": "nonpayable",
      "type": "function"
    },
    {
      "inputs": [],
      "name": "proposedAggregator",
      "outputs": [
        {
          "internalType": "contract AggregatorV2V3Interface",
          "name": "",
          "type": "address"
        }
      ],
      "stateMutability": "view",
      "type": "function"
    },
    {
      "inputs": [
        {
          "internalType": "uint80",
          "name": "_roundId",
          "type": "uint80"
        }
      ],
      "name": "proposedGetRoundData",
      "outputs": [
        {
          "internalType": "uint80",
          "name": "roundId",
          "type": "uint80"
        },
        {
          "internalType": "int256",
          "name": "answer",
          "type": "int256"
        },
        {
          "internalType": "uint256",
          "name": "startedAt",
          "type": "uint256"
        },
        {
          "internalType": "uint256",
          "name": "updatedAt",
          "type": "uint256"
        },
        {
          "internalType": "uint80",
          "name": "answeredInRound",
          "type": "uint80"
        }
      ],
      "stateMutability": "view",
      "type": "function"
    },
    {
      "inputs": [],
      "name": "proposedLatestRoundData",
      "outputs": [
        {
          "internalType": "uint80",
          "name": "roundId",
          "type": "uint80"
        },
        {
          "internalType": "int256",
          "name": "answer",
          "type": "int256"
        },
        {
          "internalType": "uint256",
          "name": "startedAt",
          "type": "uint256"
        },
        {
          "internalType": "uint256",
          "name": "updatedAt",
          "type": "uint256"
        },
        {
          "internalType": "uint80",
          "name": "answeredInRound",
          "type": "uint80"
        }
      ],
      "stateMutability": "view",
      "type": "function"
    },
    {
      "inputs": [
        {
          "internalType": "address",
          "name": "_to",
          "type": "address"
        }
      ],
      "name": "transferOwnership",
      "outputs": [],
      "stateMutability": "nonpayable",
      "type": "function"
    },
    {
      "inputs": [],
      "name": "version",
      "outputs": [
        {
          "internalType": "uint256",
          "name": "",
          "type": "uint256"
        }
      ],
      "stateMutability": "view",
      "type": "function"
    }
  ],
  "bytecode": "0x60806040523480156200001157600080fd5b5060405162002316380380620023168339818101604052810190620000379190620001c8565b336000806101000a81548173ffffffffffffffffffffffffffffffffffffffff021916908373ffffffffffffffffffffffffffffffffffffffff16021790555062000088816200008f60201b60201c565b50620002be565b60006001600260000160009054906101000a900461ffff16620000b39190620001f4565b905060405180604001604052808261ffff1681526020018373ffffffffffffffffffffffffffffffffffffffff16815250600260008201518160000160006101000a81548161ffff021916908361ffff16021790555060208201518160000160026101000a81548173ffffffffffffffffffffffffffffffffffffffff021916908373ffffffffffffffffffffffffffffffffffffffff16021790555090505081600460008361ffff1661ffff16815260200190815260200160002060006101000a81548173ffffffffffffffffffffffffffffffffffffffff021916908373ffffffffffffffffffffffffffffffffffffffff1602179055505050565b600081519050620001c281620002a4565b92915050565b600060208284031215620001db57600080fd5b6000620001eb84828501620001b1565b91505092915050565b6000620002018262000247565b91506200020e8362000247565b92508261ffff0382111562000228576200022762000275565b5b828201905092915050565b6000620002408262000255565b9050919050565b600061ffff82169050919050565b600073ffffffffffffffffffffffffffffffffffffffff82169050919050565b7f4e487b7100000000000000000000000000000000000000000000000000000000600052601160045260246000fd5b620002af8162000233565b8114620002bb57600080fd5b50565b61204880620002ce6000396000f3fe608060405234801561001057600080fd5b50600436106101375760003560e01c80638da5cb5b116100b8578063b633620c1161007c578063b633620c1461032a578063c15973041461035a578063e8c4be301461038a578063f2fde38b146103a8578063f8a2abd3146103c4578063feaf968c146103e057610137565b80638da5cb5b1461026a5780638f6b4d91146102885780639a6fc8f5146102aa578063a928c096146102de578063b5ab58dc146102fa57610137565b80636001ac53116100ff5780636001ac53146101d2578063668a0f02146102065780637284e4161461022457806379ba5097146102425780638205bf6a1461024c57610137565b8063245a7bfc1461013c578063313ce5671461015a57806350d25bcd1461017857806354fd4d501461019657806358303b10146101b4575b600080fd5b610144610402565b60405161015191906118bb565b60405180910390f35b61016261042f565b60405161016f9190611a88565b60405180910390f35b610180610438565b60405161018d919061190c565b60405180910390f35b61019e6104e2565b6040516101ab91906119e4565b60405180910390f35b6101bc61058c565b6040516101c991906119c9565b60405180910390f35b6101ec60048036038101906101e791906116cf565b6105a7565b6040516101fd959493929190611a35565b60405180910390f35b61020e6106fe565b60405161021b91906119e4565b60405180910390f35b61022c610827565b6040516102399190611927565b60405180910390f35b61024a6108d6565b005b610254610a6b565b60405161026191906119e4565b60405180910390f35b610272610b15565b60405161027f91906118d6565b60405180910390f35b610290610b39565b6040516102a1959493929190611a35565b60405180910390f35b6102c460048036038101906102bf91906116cf565b610c83565b6040516102d5959493929190611a35565b60405180910390f35b6102f860048036038101906102f391906115c1565b610cc6565b005b610314600480360381019061030f919061167d565b610e15565b604051610321919061190c565b60405180910390f35b610344600480360381019061033f919061167d565b610f72565b60405161035191906119e4565b60405180910390f35b610374600480360381019061036f9190611654565b6110cf565b60405161038191906118f1565b60405180910390f35b610392611102565b60405161039f91906118f1565b60405180910390f35b6103c260048036038101906103bd91906115c1565b611128565b005b6103de60048036038101906103d991906115c1565b611274565b005b6103e8611346565b6040516103f9959493929190611a35565b60405180910390f35b6000600260000160029054906101000a900473ffffffffffffffffffffffffffffffffffffffff16905090565b60006012905090565b6000600260000160029054906101000a900473ffffffffffffffffffffffffffffffffffffffff1673ffffffffffffffffffffffffffffffffffffffff166350d25bcd6040518163ffffffff1660e01b815260040160206040518083038186803b1580156104a557600080fd5b505afa1580156104b9573d6000803e3d6000fd5b505050506040513d601f19601f820116820180604052508101906104dd91906115ea565b905090565b6000600260000160029054906101000a900473ffffffffffffffffffffffffffffffffffffffff1673ffffffffffffffffffffffffffffffffffffffff166354fd4d506040518163ffffffff1660e01b815260040160206040518083038186803b15801561054f57600080fd5b505afa158015610563573d6000803e3d6000fd5b505050506040513d601f19601f8201168201806040525081019061058791906116a6565b905090565b6000600260000160009054906101000a900461ffff16905090565b60008060008060008073ffffffffffffffffffffffffffffffffffffffff16600360009054906101000a900473ffffffffffffffffffffffffffffffffffffffff1673ffffffffffffffffffffffffffffffffffffffff161415610640576040517f08c379a000000000000000000000000000000000000000000000000000000000815260040161063790611989565b60405180910390fd5b600360009054906101000a900473ffffffffffffffffffffffffffffffffffffffff1673ffffffffffffffffffffffffffffffffffffffff16639a6fc8f5876040518263ffffffff1660e01b815260040161069b9190611a1a565b60a06040518083038186803b1580156106b357600080fd5b505afa1580156106c7573d6000803e3d6000fd5b505050506040513d601f19601f820116820180604052508101906106eb91906116f8565b9450945094509450945091939590929450565b60008060026040518060400160405290816000820160009054906101000a900461ffff1661ffff1661ffff1681526020016000820160029054906101000a900473ffffffffffffffffffffffffffffffffffffffff1673ffffffffffffffffffffffffffffffffffffffff1673ffffffffffffffffffffffffffffffffffffffff168152505090506108158160000151826020015173ffffffffffffffffffffffffffffffffffffffff1663668a0f026040518163ffffffff1660e01b815260040160206040518083038186803b1580156107d857600080fd5b505afa1580156107ec573d6000803e3d6000fd5b505050506040513d601f19601f8201168201806040525081019061081091906116a6565b611369565b69ffffffffffffffffffff1691505090565b6060600260000160029054906101000a900473ffffffffffffffffffffffffffffffffffffffff1673ffffffffffffffffffffffffffffffffffffffff16637284e4166040518163ffffffff1660e01b815260040160006040518083038186803b15801561089457600080fd5b505afa1580156108a8573d6000803e3d6000fd5b505050506040513d6000823e3d601f19601f820116820180604052508101906108d19190611613565b905090565b600160009054906101000a900473ffffffffffffffffffffffffffffffffffffffff1673ffffffffffffffffffffffffffffffffffffffff163373ffffffffffffffffffffffffffffffffffffffff1614610966576040517f08c379a000000000000000000000000000000000000000000000000000000000815260040161095d90611949565b60405180910390fd5b60008060009054906101000a900473ffffffffffffffffffffffffffffffffffffffff169050336000806101000a81548173ffffffffffffffffffffffffffffffffffffffff021916908373ffffffffffffffffffffffffffffffffffffffff1602179055506000600160006101000a81548173ffffffffffffffffffffffffffffffffffffffff021916908373ffffffffffffffffffffffffffffffffffffffff1602179055503373ffffffffffffffffffffffffffffffffffffffff168173ffffffffffffffffffffffffffffffffffffffff167f8be0079c531659141344cd1fd0a4f28419497f9722a3daafe3b4186f6b6457e060405160405180910390a350565b6000600260000160029054906101000a900473ffffffffffffffffffffffffffffffffffffffff1673ffffffffffffffffffffffffffffffffffffffff16638205bf6a6040518163ffffffff1660e01b815260040160206040518083038186803b158015610ad857600080fd5b505afa158015610aec573d6000803e3d6000fd5b505050506040513d601f19601f82011682018060405250810190610b1091906116a6565b905090565b60008054906101000a900473ffffffffffffffffffffffffffffffffffffffff1681565b60008060008060008073ffffffffffffffffffffffffffffffffffffffff16600360009054906101000a900473ffffffffffffffffffffffffffffffffffffffff1673ffffffffffffffffffffffffffffffffffffffff161415610bd2576040517f08c379a0000000000000000000000000000000000000000000000000000000008152600401610bc990611989565b60405180910390fd5b600360009054906101000a900473ffffffffffffffffffffffffffffffffffffffff1673ffffffffffffffffffffffffffffffffffffffff1663feaf968c6040518163ffffffff1660e01b815260040160a06040518083038186803b158015610c3a57600080fd5b505afa158015610c4e573d6000803e3d6000fd5b505050506040513d601f19601f82011682018060405250810190610c7291906116f8565b945094509450945094509091929394565b6000806000806000806001905060006117709050600060019050600060019050600060019050848484848499509950995099509950505050505091939590929450565b60008054906101000a900473ffffffffffffffffffffffffffffffffffffffff1673ffffffffffffffffffffffffffffffffffffffff163373ffffffffffffffffffffffffffffffffffffffff1614610d54576040517f08c379a0000000000000000000000000000000000000000000000000000000008152600401610d4b90611969565b60405180910390fd5b600360009054906101000a900473ffffffffffffffffffffffffffffffffffffffff1673ffffffffffffffffffffffffffffffffffffffff168173ffffffffffffffffffffffffffffffffffffffff1614610de4576040517f08c379a0000000000000000000000000000000000000000000000000000000008152600401610ddb906119a9565b60405180910390fd5b600360006101000a81549073ffffffffffffffffffffffffffffffffffffffff0219169055610e1281611388565b50565b6000600160106040610e279190611b4d565b6002610e339190611bf6565b610e3d9190611d14565b821115610e4d5760009050610f6d565b600080610e59846114a8565b915091506000600460008461ffff1661ffff16815260200190815260200160002060009054906101000a900473ffffffffffffffffffffffffffffffffffffffff169050600073ffffffffffffffffffffffffffffffffffffffff168173ffffffffffffffffffffffffffffffffffffffff161415610ede5760009350505050610f6d565b8073ffffffffffffffffffffffffffffffffffffffff1663b5ab58dc836040518263ffffffff1660e01b8152600401610f1791906119ff565b60206040518083038186803b158015610f2f57600080fd5b505afa158015610f43573d6000803e3d6000fd5b505050506040513d601f19601f82011682018060405250810190610f6791906115ea565b93505050505b919050565b6000600160106040610f849190611b4d565b6002610f909190611bf6565b610f9a9190611d14565b821115610faa57600090506110ca565b600080610fb6846114a8565b915091506000600460008461ffff1661ffff16815260200190815260200160002060009054906101000a900473ffffffffffffffffffffffffffffffffffffffff169050600073ffffffffffffffffffffffffffffffffffffffff168173ffffffffffffffffffffffffffffffffffffffff16141561103b57600093505050506110ca565b8073ffffffffffffffffffffffffffffffffffffffff1663b633620c836040518263ffffffff1660e01b815260040161107491906119ff565b60206040518083038186803b15801561108c57600080fd5b505afa1580156110a0573d6000803e3d6000fd5b505050506040513d601f19601f820116820180604052508101906110c491906116a6565b93505050505b919050565b60046020528060005260406000206000915054906101000a900473ffffffffffffffffffffffffffffffffffffffff1681565b600360009054906101000a900473ffffffffffffffffffffffffffffffffffffffff1681565b60008054906101000a900473ffffffffffffffffffffffffffffffffffffffff1673ffffffffffffffffffffffffffffffffffffffff163373ffffffffffffffffffffffffffffffffffffffff16146111b6576040517f08c379a00000000000000000000000000000000000000000000000000000000081526004016111ad90611969565b60405180910390fd5b80600160006101000a81548173ffffffffffffffffffffffffffffffffffffffff021916908373ffffffffffffffffffffffffffffffffffffffff1602179055508073ffffffffffffffffffffffffffffffffffffffff1660008054906101000a900473ffffffffffffffffffffffffffffffffffffffff1673ffffffffffffffffffffffffffffffffffffffff167fed8889f560326eb138920d842192f0eb3dd22b4f139c87a2c57538e05bae127860405160405180910390a350565b60008054906101000a900473ffffffffffffffffffffffffffffffffffffffff1673ffffffffffffffffffffffffffffffffffffffff163373ffffffffffffffffffffffffffffffffffffffff1614611302576040517f08c379a00000000000000000000000000000000000000000000000000000000081526004016112f990611969565b60405180910390fd5b80600360006101000a81548173ffffffffffffffffffffffffffffffffffffffff021916908373ffffffffffffffffffffffffffffffffffffffff16021790555050565b600080600080600060016117706001806001945094509450945094509091929394565b60008167ffffffffffffffff1660408461ffff16901b17905092915050565b60006001600260000160009054906101000a900461ffff166113aa9190611b15565b905060405180604001604052808261ffff1681526020018373ffffffffffffffffffffffffffffffffffffffff16815250600260008201518160000160006101000a81548161ffff021916908361ffff16021790555060208201518160000160026101000a81548173ffffffffffffffffffffffffffffffffffffffff021916908373ffffffffffffffffffffffffffffffffffffffff16021790555090505081600460008361ffff1661ffff16815260200190815260200160002060006101000a81548173ffffffffffffffffffffffffffffffffffffffff021916908373ffffffffffffffffffffffffffffffffffffffff1602179055505050565b6000806000604084901c905060008490508181935093505050915091565b60006114d96114d484611ac8565b611aa3565b9050828152602081018484840111156114f157600080fd5b6114fc848285611e1b565b509392505050565b60008135905061151381611f9f565b92915050565b60008151905061152881611fb6565b92915050565b600082601f83011261153f57600080fd5b815161154f8482602086016114c6565b91505092915050565b60008135905061156781611fcd565b92915050565b60008135905061157c81611fe4565b92915050565b60008151905061159181611fe4565b92915050565b6000813590506115a681611ffb565b92915050565b6000815190506115bb81611ffb565b92915050565b6000602082840312156115d357600080fd5b60006115e184828501611504565b91505092915050565b6000602082840312156115fc57600080fd5b600061160a84828501611519565b91505092915050565b60006020828403121561162557600080fd5b600082015167ffffffffffffffff81111561163f57600080fd5b61164b8482850161152e565b91505092915050565b60006020828403121561166657600080fd5b600061167484828501611558565b91505092915050565b60006020828403121561168f57600080fd5b600061169d8482850161156d565b91505092915050565b6000602082840312156116b857600080fd5b60006116c684828501611582565b91505092915050565b6000602082840312156116e157600080fd5b60006116ef84828501611597565b91505092915050565b600080600080600060a0868803121561171057600080fd5b600061171e888289016115ac565b955050602061172f88828901611519565b945050604061174088828901611582565b935050606061175188828901611582565b9250506080611762888289016115ac565b9150509295509295909350565b61177881611d5a565b82525050565b61178781611d48565b82525050565b61179681611de5565b82525050565b6117a581611d6c565b82525050565b60006117b682611af9565b6117c08185611b04565b93506117d0818560208601611e1b565b6117d981611edd565b840191505092915050565b60006117f1601683611b04565b91506117fc82611efb565b602082019050919050565b6000611814601683611b04565b915061181f82611f24565b602082019050919050565b6000611837601e83611b04565b915061184282611f4d565b602082019050919050565b600061185a601b83611b04565b915061186582611f76565b602082019050919050565b61187981611d76565b82525050565b61188881611da4565b82525050565b61189781611e09565b82525050565b6118a681611dcf565b82525050565b6118b581611dc2565b82525050565b60006020820190506118d0600083018461177e565b92915050565b60006020820190506118eb600083018461176f565b92915050565b6000602082019050611906600083018461178d565b92915050565b6000602082019050611921600083018461179c565b92915050565b6000602082019050818103600083015261194181846117ab565b905092915050565b60006020820190508181036000830152611962816117e4565b9050919050565b6000602082019050818103600083015261198281611807565b9050919050565b600060208201905081810360008301526119a28161182a565b9050919050565b600060208201905081810360008301526119c28161184d565b9050919050565b60006020820190506119de6000830184611870565b92915050565b60006020820190506119f9600083018461187f565b92915050565b6000602082019050611a14600083018461188e565b92915050565b6000602082019050611a2f600083018461189d565b92915050565b600060a082019050611a4a600083018861189d565b611a57602083018761179c565b611a64604083018661187f565b611a71606083018561187f565b611a7e608083018461189d565b9695505050505050565b6000602082019050611a9d60008301846118ac565b92915050565b6000611aad611abe565b9050611ab98282611e4e565b919050565b6000604051905090565b600067ffffffffffffffff821115611ae357611ae2611eae565b5b611aec82611edd565b9050602081019050919050565b600081519050919050565b600082825260208201905092915050565b6000611b2082611d76565b9150611b2b83611d76565b92508261ffff03821115611b4257611b41611e7f565b5b828201905092915050565b6000611b5882611da4565b9150611b6383611da4565b9250827fffffffffffffffffffffffffffffffffffffffffffffffffffffffffffffffff03821115611b9857611b97611e7f565b5b828201905092915050565b6000808291508390505b6001851115611bed57808604811115611bc957611bc8611e7f565b5b6001851615611bd85780820291505b8081029050611be685611eee565b9450611bad565b94509492505050565b6000611c0182611da4565b9150611c0c83611da4565b9250611c397fffffffffffffffffffffffffffffffffffffffffffffffffffffffffffffffff8484611c41565b905092915050565b600082611c515760019050611d0d565b81611c5f5760009050611d0d565b8160018114611c755760028114611c7f57611cae565b6001915050611d0d565b60ff841115611c9157611c90611e7f565b5b8360020a915084821115611ca857611ca7611e7f565b5b50611d0d565b5060208310610133831016604e8410600b8410161715611ce35782820a905083811115611cde57611cdd611e7f565b5b611d0d565b611cf08484846001611ba3565b92509050818404811115611d0757611d06611e7f565b5b81810290505b9392505050565b6000611d1f82611da4565b9150611d2a83611da4565b925082821015611d3d57611d3c611e7f565b5b828203905092915050565b6000611d5382611d84565b9050919050565b6000611d6582611d84565b9050919050565b6000819050919050565b600061ffff82169050919050565b600073ffffffffffffffffffffffffffffffffffffffff82169050919050565b6000819050919050565b600067ffffffffffffffff82169050919050565b600060ff82169050919050565b600069ffffffffffffffffffff82169050919050565b6000611df082611df7565b9050919050565b6000611e0282611d84565b9050919050565b6000611e1482611dae565b9050919050565b60005b83811015611e39578082015181840152602081019050611e1e565b83811115611e48576000848401525b50505050565b611e5782611edd565b810181811067ffffffffffffffff82111715611e7657611e75611eae565b5b80604052505050565b7f4e487b7100000000000000000000000000000000000000000000000000000000600052601160045260246000fd5b7f4e487b7100000000000000000000000000000000000000000000000000000000600052604160045260246000fd5b6000601f19601f8301169050919050565b60008160011c9050919050565b7f4d7573742062652070726f706f736564206f776e657200000000000000000000600082015250565b7f4f6e6c792063616c6c61626c65206279206f776e657200000000000000000000600082015250565b7f4e6f2070726f706f7365642061676772656761746f722070726573656e740000600082015250565b7f496e76616c69642070726f706f7365642061676772656761746f720000000000600082015250565b611fa881611d48565b8114611fb357600080fd5b50565b611fbf81611d6c565b8114611fca57600080fd5b50565b611fd681611d76565b8114611fe157600080fd5b50565b611fed81611da4565b8114611ff857600080fd5b50565b61200481611dcf565b811461200f57600080fd5b5056fea26469706673582212209ba498ad471bf48ac5d69337638611a2ef7fb0171540712d5cd97a3b5d3c5ce464736f6c63430008040033",
  "linkReferences": {},
  "deployedLinkReferences": {}
}