{
  "_format": "hh-sol-artifact-1",
  "contractName": "EACAggregatorProxy",
  "sourceName": "contracts/oracleETH.sol",
  "abi": [
    {
      "inputs": [
        {
          "internalType": "address",
          "name": "_aggregator",
          "type": "address"
        },
        {
          "internalType": "address",
          "name": "_accessController",
          "type": "address"
        }
      ],
      "stateMutability": "nonpayable",
      "type": "constructor"
    },
    {
      "anonymous": false,
      "inputs": [
        {
          "indexed": true,
          "internalType": "int256",
          "name": "current",
          "type": "int256"
        },
        {
          "indexed": true,
          "internalType": "uint256",
          "name": "roundId",
          "type": "uint256"
        },
        {
          "indexed": false,
          "internalType": "uint256",
          "name": "updatedAt",
          "type": "uint256"
        }
      ],
      "name": "AnswerUpdated",
      "type": "event"
    },
    {
      "anonymous": false,
      "inputs": [
        {
          "indexed": true,
          "internalType": "uint256",
          "name": "roundId",
          "type": "uint256"
        },
        {
          "indexed": true,
          "internalType": "address",
          "name": "startedBy",
          "type": "address"
        },
        {
          "indexed": false,
          "internalType": "uint256",
          "name": "startedAt",
          "type": "uint256"
        }
      ],
      "name": "NewRound",
      "type": "event"
    },
    {
      "anonymous": false,
      "inputs": [
        {
          "indexed": true,
          "internalType": "address",
          "name": "from",
          "type": "address"
        },
        {
          "indexed": true,
          "internalType": "address",
          "name": "to",
          "type": "address"
        }
      ],
      "name": "OwnershipTransferRequested",
      "type": "event"
    },
    {
      "anonymous": false,
      "inputs": [
        {
          "indexed": true,
          "internalType": "address",
          "name": "from",
          "type": "address"
        },
        {
          "indexed": true,
          "internalType": "address",
          "name": "to",
          "type": "address"
        }
      ],
      "name": "OwnershipTransferred",
      "type": "event"
    },
    {
      "inputs": [],
      "name": "acceptOwnership",
      "outputs": [],
      "stateMutability": "nonpayable",
      "type": "function"
    },
    {
      "inputs": [],
      "name": "accessController",
      "outputs": [
        {
          "internalType": "contract AccessControllerInterface",
          "name": "",
          "type": "address"
        }
      ],
      "stateMutability": "view",
      "type": "function"
    },
    {
      "inputs": [],
      "name": "aggregator",
      "outputs": [
        {
          "internalType": "address",
          "name": "",
          "type": "address"
        }
      ],
      "stateMutability": "view",
      "type": "function"
    },
    {
      "inputs": [
        {
          "internalType": "address",
          "name": "_aggregator",
          "type": "address"
        }
      ],
      "name": "confirmAggregator",
      "outputs": [],
      "stateMutability": "nonpayable",
      "type": "function"
    },
    {
      "inputs": [],
      "name": "decimals",
      "outputs": [
        {
          "internalType": "uint8",
          "name": "",
          "type": "uint8"
        }
      ],
      "stateMutability": "view",
      "type": "function"
    },
    {
      "inputs": [],
      "name": "description",
      "outputs": [
        {
          "internalType": "string",
          "name": "",
          "type": "string"
        }
      ],
      "stateMutability": "view",
      "type": "function"
    },
    {
      "inputs": [
        {
          "internalType": "uint256",
          "name": "_roundId",
          "type": "uint256"
        }
      ],
      "name": "getAnswer",
      "outputs": [
        {
          "internalType": "int256",
          "name": "",
          "type": "int256"
        }
      ],
      "stateMutability": "view",
      "type": "function"
    },
    {
      "inputs": [
        {
          "internalType": "uint80",
          "name": "_roundId",
          "type": "uint80"
        }
      ],
      "name": "getRoundData",
      "outputs": [
        {
          "internalType": "uint80",
          "name": "roundId",
          "type": "uint80"
        },
        {
          "internalType": "int256",
          "name": "answer",
          "type": "int256"
        },
        {
          "internalType": "uint256",
          "name": "startedAt",
          "type": "uint256"
        },
        {
          "internalType": "uint256",
          "name": "updatedAt",
          "type": "uint256"
        },
        {
          "internalType": "uint80",
          "name": "answeredInRound",
          "type": "uint80"
        }
      ],
      "stateMutability": "view",
      "type": "function"
    },
    {
      "inputs": [
        {
          "internalType": "uint256",
          "name": "_roundId",
          "type": "uint256"
        }
      ],
      "name": "getTimestamp",
      "outputs": [
        {
          "internalType": "uint256",
          "name": "",
          "type": "uint256"
        }
      ],
      "stateMutability": "view",
      "type": "function"
    },
    {
      "inputs": [],
      "name": "latestAnswer",
      "outputs": [
        {
          "internalType": "int256",
          "name": "",
          "type": "int256"
        }
      ],
      "stateMutability": "view",
      "type": "function"
    },
    {
      "inputs": [],
      "name": "latestRound",
      "outputs": [
        {
          "internalType": "uint256",
          "name": "",
          "type": "uint256"
        }
      ],
      "stateMutability": "view",
      "type": "function"
    },
    {
      "inputs": [],
      "name": "latestRoundData",
      "outputs": [
        {
          "internalType": "uint80",
          "name": "roundId",
          "type": "uint80"
        },
        {
          "internalType": "int256",
          "name": "answer",
          "type": "int256"
        },
        {
          "internalType": "uint256",
          "name": "startedAt",
          "type": "uint256"
        },
        {
          "internalType": "uint256",
          "name": "updatedAt",
          "type": "uint256"
        },
        {
          "internalType": "uint80",
          "name": "answeredInRound",
          "type": "uint80"
        }
      ],
      "stateMutability": "view",
      "type": "function"
    },
    {
      "inputs": [],
      "name": "latestTimestamp",
      "outputs": [
        {
          "internalType": "uint256",
          "name": "",
          "type": "uint256"
        }
      ],
      "stateMutability": "view",
      "type": "function"
    },
    {
      "inputs": [],
      "name": "owner",
      "outputs": [
        {
          "internalType": "address payable",
          "name": "",
          "type": "address"
        }
      ],
      "stateMutability": "view",
      "type": "function"
    },
    {
      "inputs": [
        {
          "internalType": "uint16",
          "name": "",
          "type": "uint16"
        }
      ],
      "name": "phaseAggregators",
      "outputs": [
        {
          "internalType": "contract AggregatorV2V3Interface",
          "name": "",
          "type": "address"
        }
      ],
      "stateMutability": "view",
      "type": "function"
    },
    {
      "inputs": [],
      "name": "phaseId",
      "outputs": [
        {
          "internalType": "uint16",
          "name": "",
          "type": "uint16"
        }
      ],
      "stateMutability": "view",
      "type": "function"
    },
    {
      "inputs": [
        {
          "internalType": "address",
          "name": "_aggregator",
          "type": "address"
        }
      ],
      "name": "proposeAggregator",
      "outputs": [],
      "stateMutability": "nonpayable",
      "type": "function"
    },
    {
      "inputs": [],
      "name": "proposedAggregator",
      "outputs": [
        {
          "internalType": "contract AggregatorV2V3Interface",
          "name": "",
          "type": "address"
        }
      ],
      "stateMutability": "view",
      "type": "function"
    },
    {
      "inputs": [
        {
          "internalType": "uint80",
          "name": "_roundId",
          "type": "uint80"
        }
      ],
      "name": "proposedGetRoundData",
      "outputs": [
        {
          "internalType": "uint80",
          "name": "roundId",
          "type": "uint80"
        },
        {
          "internalType": "int256",
          "name": "answer",
          "type": "int256"
        },
        {
          "internalType": "uint256",
          "name": "startedAt",
          "type": "uint256"
        },
        {
          "internalType": "uint256",
          "name": "updatedAt",
          "type": "uint256"
        },
        {
          "internalType": "uint80",
          "name": "answeredInRound",
          "type": "uint80"
        }
      ],
      "stateMutability": "view",
      "type": "function"
    },
    {
      "inputs": [],
      "name": "proposedLatestRoundData",
      "outputs": [
        {
          "internalType": "uint80",
          "name": "roundId",
          "type": "uint80"
        },
        {
          "internalType": "int256",
          "name": "answer",
          "type": "int256"
        },
        {
          "internalType": "uint256",
          "name": "startedAt",
          "type": "uint256"
        },
        {
          "internalType": "uint256",
          "name": "updatedAt",
          "type": "uint256"
        },
        {
          "internalType": "uint80",
          "name": "answeredInRound",
          "type": "uint80"
        }
      ],
      "stateMutability": "view",
      "type": "function"
    },
    {
      "inputs": [
        {
          "internalType": "address",
          "name": "_accessController",
          "type": "address"
        }
      ],
      "name": "setController",
      "outputs": [],
      "stateMutability": "nonpayable",
      "type": "function"
    },
    {
      "inputs": [
        {
          "internalType": "address",
          "name": "_to",
          "type": "address"
        }
      ],
      "name": "transferOwnership",
      "outputs": [],
      "stateMutability": "nonpayable",
      "type": "function"
    },
    {
      "inputs": [],
      "name": "version",
      "outputs": [
        {
          "internalType": "uint256",
          "name": "",
          "type": "uint256"
        }
      ],
      "stateMutability": "view",
      "type": "function"
    }
  ],
  "bytecode": "0x60806040523480156200001157600080fd5b50604051620033fb380380620033fb8339818101604052810190620000379190620002b1565b81336000806101000a81548173ffffffffffffffffffffffffffffffffffffffff021916908373ffffffffffffffffffffffffffffffffffffffff1602179055506200008981620000a360201b60201c565b506200009b81620001c560201b60201c565b50506200043f565b60006001600260000160009054906101000a900461ffff16620000c791906200034c565b905060405180604001604052808261ffff1681526020018373ffffffffffffffffffffffffffffffffffffffff16815250600260008201518160000160006101000a81548161ffff021916908361ffff16021790555060208201518160000160026101000a81548173ffffffffffffffffffffffffffffffffffffffff021916908373ffffffffffffffffffffffffffffffffffffffff16021790555090505081600460008361ffff1661ffff16815260200190815260200160002060006101000a81548173ffffffffffffffffffffffffffffffffffffffff021916908373ffffffffffffffffffffffffffffffffffffffff1602179055505050565b60008054906101000a900473ffffffffffffffffffffffffffffffffffffffff1673ffffffffffffffffffffffffffffffffffffffff163373ffffffffffffffffffffffffffffffffffffffff161462000256576040517f08c379a00000000000000000000000000000000000000000000000000000000081526004016200024d9062000319565b60405180910390fd5b80600560006101000a81548173ffffffffffffffffffffffffffffffffffffffff021916908373ffffffffffffffffffffffffffffffffffffffff16021790555050565b600081519050620002ab8162000425565b92915050565b60008060408385031215620002c557600080fd5b6000620002d5858286016200029a565b9250506020620002e8858286016200029a565b9150509250929050565b6000620003016016836200033b565b91506200030e82620003fc565b602082019050919050565b600060208201905081810360008301526200033481620002f2565b9050919050565b600082825260208201905092915050565b600062000359826200039f565b915062000366836200039f565b92508261ffff0382111562000380576200037f620003cd565b5b828201905092915050565b60006200039882620003ad565b9050919050565b600061ffff82169050919050565b600073ffffffffffffffffffffffffffffffffffffffff82169050919050565b7f4e487b7100000000000000000000000000000000000000000000000000000000600052601160045260246000fd5b7f4f6e6c792063616c6c61626c65206279206f776e657200000000000000000000600082015250565b62000430816200038b565b81146200043c57600080fd5b50565b612fac806200044f6000396000f3fe608060405234801561001057600080fd5b506004361061014d5760003560e01c80638f6b4d91116100c3578063bc43cbaf1161007c578063bc43cbaf1461038c578063c1597304146103aa578063e8c4be30146103da578063f2fde38b146103f8578063f8a2abd314610414578063feaf968c146104305761014d565b80638f6b4d911461029e57806392eefe9b146102c05780639a6fc8f5146102dc578063a928c09614610310578063b5ab58dc1461032c578063b633620c1461035c5761014d565b80636001ac53116101155780636001ac53146101e8578063668a0f021461021c5780637284e4161461023a57806379ba5097146102585780638205bf6a146102625780638da5cb5b146102805761014d565b8063245a7bfc14610152578063313ce5671461017057806350d25bcd1461018e57806354fd4d50146101ac57806358303b10146101ca575b600080fd5b61015a610452565b6040516101679190612722565b60405180910390f35b61017861047f565b604051610185919061295c565b60405180910390f35b610196610488565b6040516101a391906127c0565b60405180910390f35b6101b46105c2565b6040516101c191906128b8565b60405180910390f35b6101d261066c565b6040516101df919061289d565b60405180910390f35b61020260048036038101906101fd91906124d7565b610687565b604051610213959493929190612909565b60405180910390f35b610224610868565b60405161023191906128b8565b60405180910390f35b6102426109a2565b60405161024f91906127db565b60405180910390f35b610260610a51565b005b61026a610be6565b60405161027791906128b8565b60405180910390f35b610288610d20565b604051610295919061273d565b60405180910390f35b6102a6610d44565b6040516102b7959493929190612909565b60405180910390f35b6102da60048036038101906102d591906123a0565b610f22565b005b6102f660048036038101906102f191906124d7565b610ff4565b604051610307959493929190612909565b60405180910390f35b61032a600480360381019061032591906123a0565b611143565b005b61034660048036038101906103419190612485565b611292565b60405161035391906127c0565b60405180910390f35b61037660048036038101906103719190612485565b6113cf565b60405161038391906128b8565b60405180910390f35b61039461150c565b6040516103a1919061278a565b60405180910390f35b6103c460048036038101906103bf919061245c565b611532565b6040516103d191906127a5565b60405180910390f35b6103e2611565565b6040516103ef91906127a5565b60405180910390f35b610412600480360381019061040d91906123a0565b61158b565b005b61042e600480360381019061042991906123a0565b6116d7565b005b6104386117a9565b604051610449959493929190612909565b60405180910390f35b6000600260000160029054906101000a900473ffffffffffffffffffffffffffffffffffffffff16905090565b60006012905090565b600080600560009054906101000a900473ffffffffffffffffffffffffffffffffffffffff169050600073ffffffffffffffffffffffffffffffffffffffff168173ffffffffffffffffffffffffffffffffffffffff16148061057557508073ffffffffffffffffffffffffffffffffffffffff16636b14daf8336000366040518463ffffffff1660e01b815260040161052493929190612758565b60206040518083038186803b15801561053c57600080fd5b505afa158015610550573d6000803e3d6000fd5b505050506040513d601f19601f8201168201806040525081019061057491906123c9565b5b6105b4576040517f08c379a00000000000000000000000000000000000000000000000000000000081526004016105ab9061285d565b60405180910390fd5b6105bc6118f5565b91505090565b6000600260000160029054906101000a900473ffffffffffffffffffffffffffffffffffffffff1673ffffffffffffffffffffffffffffffffffffffff166354fd4d506040518163ffffffff1660e01b815260040160206040518083038186803b15801561062f57600080fd5b505afa158015610643573d6000803e3d6000fd5b505050506040513d601f19601f8201168201806040525081019061066791906124ae565b905090565b6000600260000160009054906101000a900461ffff16905090565b600080600080600080600560009054906101000a900473ffffffffffffffffffffffffffffffffffffffff169050600073ffffffffffffffffffffffffffffffffffffffff168173ffffffffffffffffffffffffffffffffffffffff16148061077a57508073ffffffffffffffffffffffffffffffffffffffff16636b14daf8336000366040518463ffffffff1660e01b815260040161072993929190612758565b60206040518083038186803b15801561074157600080fd5b505afa158015610755573d6000803e3d6000fd5b505050506040513d601f19601f8201168201806040525081019061077991906123c9565b5b6107b9576040517f08c379a00000000000000000000000000000000000000000000000000000000081526004016107b09061285d565b60405180910390fd5b600073ffffffffffffffffffffffffffffffffffffffff16600360009054906101000a900473ffffffffffffffffffffffffffffffffffffffff1673ffffffffffffffffffffffffffffffffffffffff16141561084b576040517f08c379a00000000000000000000000000000000000000000000000000000000081526004016108429061283d565b60405180910390fd5b6108548761199f565b955095509550955095505091939590929450565b600080600560009054906101000a900473ffffffffffffffffffffffffffffffffffffffff169050600073ffffffffffffffffffffffffffffffffffffffff168173ffffffffffffffffffffffffffffffffffffffff16148061095557508073ffffffffffffffffffffffffffffffffffffffff16636b14daf8336000366040518463ffffffff1660e01b815260040161090493929190612758565b60206040518083038186803b15801561091c57600080fd5b505afa158015610930573d6000803e3d6000fd5b505050506040513d601f19601f8201168201806040525081019061095491906123c9565b5b610994576040517f08c379a000000000000000000000000000000000000000000000000000000000815260040161098b9061285d565b60405180910390fd5b61099c611af6565b91505090565b6060600260000160029054906101000a900473ffffffffffffffffffffffffffffffffffffffff1673ffffffffffffffffffffffffffffffffffffffff16637284e4166040518163ffffffff1660e01b815260040160006040518083038186803b158015610a0f57600080fd5b505afa158015610a23573d6000803e3d6000fd5b505050506040513d6000823e3d601f19601f82011682018060405250810190610a4c919061241b565b905090565b600160009054906101000a900473ffffffffffffffffffffffffffffffffffffffff1673ffffffffffffffffffffffffffffffffffffffff163373ffffffffffffffffffffffffffffffffffffffff1614610ae1576040517f08c379a0000000000000000000000000000000000000000000000000000000008152600401610ad8906127fd565b60405180910390fd5b60008060009054906101000a900473ffffffffffffffffffffffffffffffffffffffff169050336000806101000a81548173ffffffffffffffffffffffffffffffffffffffff021916908373ffffffffffffffffffffffffffffffffffffffff1602179055506000600160006101000a81548173ffffffffffffffffffffffffffffffffffffffff021916908373ffffffffffffffffffffffffffffffffffffffff1602179055503373ffffffffffffffffffffffffffffffffffffffff168173ffffffffffffffffffffffffffffffffffffffff167f8be0079c531659141344cd1fd0a4f28419497f9722a3daafe3b4186f6b6457e060405160405180910390a350565b600080600560009054906101000a900473ffffffffffffffffffffffffffffffffffffffff169050600073ffffffffffffffffffffffffffffffffffffffff168173ffffffffffffffffffffffffffffffffffffffff161480610cd357508073ffffffffffffffffffffffffffffffffffffffff16636b14daf8336000366040518463ffffffff1660e01b8152600401610c8293929190612758565b60206040518083038186803b158015610c9a57600080fd5b505afa158015610cae573d6000803e3d6000fd5b505050506040513d601f19601f82011682018060405250810190610cd291906123c9565b5b610d12576040517f08c379a0000000000000000000000000000000000000000000000000000000008152600401610d099061285d565b60405180910390fd5b610d1a611c1f565b91505090565b60008054906101000a900473ffffffffffffffffffffffffffffffffffffffff1681565b600080600080600080600560009054906101000a900473ffffffffffffffffffffffffffffffffffffffff169050600073ffffffffffffffffffffffffffffffffffffffff168173ffffffffffffffffffffffffffffffffffffffff161480610e3757508073ffffffffffffffffffffffffffffffffffffffff16636b14daf8336000366040518463ffffffff1660e01b8152600401610de693929190612758565b60206040518083038186803b158015610dfe57600080fd5b505afa158015610e12573d6000803e3d6000fd5b505050506040513d601f19601f82011682018060405250810190610e3691906123c9565b5b610e76576040517f08c379a0000000000000000000000000000000000000000000000000000000008152600401610e6d9061285d565b60405180910390fd5b600073ffffffffffffffffffffffffffffffffffffffff16600360009054906101000a900473ffffffffffffffffffffffffffffffffffffffff1673ffffffffffffffffffffffffffffffffffffffff161415610f08576040517f08c379a0000000000000000000000000000000000000000000000000000000008152600401610eff9061283d565b60405180910390fd5b610f10611cc9565b95509550955095509550509091929394565b60008054906101000a900473ffffffffffffffffffffffffffffffffffffffff1673ffffffffffffffffffffffffffffffffffffffff163373ffffffffffffffffffffffffffffffffffffffff1614610fb0576040517f08c379a0000000000000000000000000000000000000000000000000000000008152600401610fa79061281d565b60405180910390fd5b80600560006101000a81548173ffffffffffffffffffffffffffffffffffffffff021916908373ffffffffffffffffffffffffffffffffffffffff16021790555050565b600080600080600080600560009054906101000a900473ffffffffffffffffffffffffffffffffffffffff169050600073ffffffffffffffffffffffffffffffffffffffff168173ffffffffffffffffffffffffffffffffffffffff1614806110e757508073ffffffffffffffffffffffffffffffffffffffff16636b14daf8336000366040518463ffffffff1660e01b815260040161109693929190612758565b60206040518083038186803b1580156110ae57600080fd5b505afa1580156110c2573d6000803e3d6000fd5b505050506040513d601f19601f820116820180604052508101906110e691906123c9565b5b611126576040517f08c379a000000000000000000000000000000000000000000000000000000000815260040161111d9061285d565b60405180910390fd5b61112f87611e13565b955095509550955095505091939590929450565b60008054906101000a900473ffffffffffffffffffffffffffffffffffffffff1673ffffffffffffffffffffffffffffffffffffffff163373ffffffffffffffffffffffffffffffffffffffff16146111d1576040517f08c379a00000000000000000000000000000000000000000000000000000000081526004016111c89061281d565b60405180910390fd5b600360009054906101000a900473ffffffffffffffffffffffffffffffffffffffff1673ffffffffffffffffffffffffffffffffffffffff168173ffffffffffffffffffffffffffffffffffffffff1614611261576040517f08c379a00000000000000000000000000000000000000000000000000000000081526004016112589061287d565b60405180910390fd5b600360006101000a81549073ffffffffffffffffffffffffffffffffffffffff021916905561128f81611e56565b50565b600080600560009054906101000a900473ffffffffffffffffffffffffffffffffffffffff169050600073ffffffffffffffffffffffffffffffffffffffff168173ffffffffffffffffffffffffffffffffffffffff16148061137f57508073ffffffffffffffffffffffffffffffffffffffff16636b14daf8336000366040518463ffffffff1660e01b815260040161132e93929190612758565b60206040518083038186803b15801561134657600080fd5b505afa15801561135a573d6000803e3d6000fd5b505050506040513d601f19601f8201168201806040525081019061137e91906123c9565b5b6113be576040517f08c379a00000000000000000000000000000000000000000000000000000000081526004016113b59061285d565b60405180910390fd5b6113c783611f76565b915050919050565b600080600560009054906101000a900473ffffffffffffffffffffffffffffffffffffffff169050600073ffffffffffffffffffffffffffffffffffffffff168173ffffffffffffffffffffffffffffffffffffffff1614806114bc57508073ffffffffffffffffffffffffffffffffffffffff16636b14daf8336000366040518463ffffffff1660e01b815260040161146b93929190612758565b60206040518083038186803b15801561148357600080fd5b505afa158015611497573d6000803e3d6000fd5b505050506040513d601f19601f820116820180604052508101906114bb91906123c9565b5b6114fb576040517f08c379a00000000000000000000000000000000000000000000000000000000081526004016114f29061285d565b60405180910390fd5b611504836120d3565b915050919050565b600560009054906101000a900473ffffffffffffffffffffffffffffffffffffffff1681565b60046020528060005260406000206000915054906101000a900473ffffffffffffffffffffffffffffffffffffffff1681565b600360009054906101000a900473ffffffffffffffffffffffffffffffffffffffff1681565b60008054906101000a900473ffffffffffffffffffffffffffffffffffffffff1673ffffffffffffffffffffffffffffffffffffffff163373ffffffffffffffffffffffffffffffffffffffff1614611619576040517f08c379a00000000000000000000000000000000000000000000000000000000081526004016116109061281d565b60405180910390fd5b80600160006101000a81548173ffffffffffffffffffffffffffffffffffffffff021916908373ffffffffffffffffffffffffffffffffffffffff1602179055508073ffffffffffffffffffffffffffffffffffffffff1660008054906101000a900473ffffffffffffffffffffffffffffffffffffffff1673ffffffffffffffffffffffffffffffffffffffff167fed8889f560326eb138920d842192f0eb3dd22b4f139c87a2c57538e05bae127860405160405180910390a350565b60008054906101000a900473ffffffffffffffffffffffffffffffffffffffff1673ffffffffffffffffffffffffffffffffffffffff163373ffffffffffffffffffffffffffffffffffffffff1614611765576040517f08c379a000000000000000000000000000000000000000000000000000000000815260040161175c9061281d565b60405180910390fd5b80600360006101000a81548173ffffffffffffffffffffffffffffffffffffffff021916908373ffffffffffffffffffffffffffffffffffffffff16021790555050565b600080600080600080600560009054906101000a900473ffffffffffffffffffffffffffffffffffffffff169050600073ffffffffffffffffffffffffffffffffffffffff168173ffffffffffffffffffffffffffffffffffffffff16148061189c57508073ffffffffffffffffffffffffffffffffffffffff16636b14daf8336000366040518463ffffffff1660e01b815260040161184b93929190612758565b60206040518083038186803b15801561186357600080fd5b505afa158015611877573d6000803e3d6000fd5b505050506040513d601f19601f8201168201806040525081019061189b91906123c9565b5b6118db576040517f08c379a00000000000000000000000000000000000000000000000000000000081526004016118d29061285d565b60405180910390fd5b6118e3612230565b95509550955095509550509091929394565b6000600260000160029054906101000a900473ffffffffffffffffffffffffffffffffffffffff1673ffffffffffffffffffffffffffffffffffffffff166350d25bcd6040518163ffffffff1660e01b815260040160206040518083038186803b15801561196257600080fd5b505afa158015611976573d6000803e3d6000fd5b505050506040513d601f19601f8201168201806040525081019061199a91906123f2565b905090565b60008060008060008073ffffffffffffffffffffffffffffffffffffffff16600360009054906101000a900473ffffffffffffffffffffffffffffffffffffffff1673ffffffffffffffffffffffffffffffffffffffff161415611a38576040517f08c379a0000000000000000000000000000000000000000000000000000000008152600401611a2f9061283d565b60405180910390fd5b600360009054906101000a900473ffffffffffffffffffffffffffffffffffffffff1673ffffffffffffffffffffffffffffffffffffffff16639a6fc8f5876040518263ffffffff1660e01b8152600401611a9391906128ee565b60a06040518083038186803b158015611aab57600080fd5b505afa158015611abf573d6000803e3d6000fd5b505050506040513d601f19601f82011682018060405250810190611ae39190612500565b9450945094509450945091939590929450565b60008060026040518060400160405290816000820160009054906101000a900461ffff1661ffff1661ffff1681526020016000820160029054906101000a900473ffffffffffffffffffffffffffffffffffffffff1673ffffffffffffffffffffffffffffffffffffffff1673ffffffffffffffffffffffffffffffffffffffff16815250509050611c0d8160000151826020015173ffffffffffffffffffffffffffffffffffffffff1663668a0f026040518163ffffffff1660e01b815260040160206040518083038186803b158015611bd057600080fd5b505afa158015611be4573d6000803e3d6000fd5b505050506040513d601f19601f82011682018060405250810190611c0891906124ae565b612253565b69ffffffffffffffffffff1691505090565b6000600260000160029054906101000a900473ffffffffffffffffffffffffffffffffffffffff1673ffffffffffffffffffffffffffffffffffffffff16638205bf6a6040518163ffffffff1660e01b815260040160206040518083038186803b158015611c8c57600080fd5b505afa158015611ca0573d6000803e3d6000fd5b505050506040513d601f19601f82011682018060405250810190611cc491906124ae565b905090565b60008060008060008073ffffffffffffffffffffffffffffffffffffffff16600360009054906101000a900473ffffffffffffffffffffffffffffffffffffffff1673ffffffffffffffffffffffffffffffffffffffff161415611d62576040517f08c379a0000000000000000000000000000000000000000000000000000000008152600401611d599061283d565b60405180910390fd5b600360009054906101000a900473ffffffffffffffffffffffffffffffffffffffff1673ffffffffffffffffffffffffffffffffffffffff1663feaf968c6040518163ffffffff1660e01b815260040160a06040518083038186803b158015611dca57600080fd5b505afa158015611dde573d6000803e3d6000fd5b505050506040513d601f19601f82011682018060405250810190611e029190612500565b945094509450945094509091929394565b6000806000806000806001905060006117709050600060019050600060019050600060019050848484848499509950995099509950505050505091939590929450565b60006001600260000160009054906101000a900461ffff16611e7891906129fa565b905060405180604001604052808261ffff1681526020018373ffffffffffffffffffffffffffffffffffffffff16815250600260008201518160000160006101000a81548161ffff021916908361ffff16021790555060208201518160000160026101000a81548173ffffffffffffffffffffffffffffffffffffffff021916908373ffffffffffffffffffffffffffffffffffffffff16021790555090505081600460008361ffff1661ffff16815260200190815260200160002060006101000a81548173ffffffffffffffffffffffffffffffffffffffff021916908373ffffffffffffffffffffffffffffffffffffffff1602179055505050565b6000600160106040611f889190612a32565b6002611f949190612adb565b611f9e9190612bf9565b821115611fae57600090506120ce565b600080611fba84612272565b915091506000600460008461ffff1661ffff16815260200190815260200160002060009054906101000a900473ffffffffffffffffffffffffffffffffffffffff169050600073ffffffffffffffffffffffffffffffffffffffff168173ffffffffffffffffffffffffffffffffffffffff16141561203f57600093505050506120ce565b8073ffffffffffffffffffffffffffffffffffffffff1663b5ab58dc836040518263ffffffff1660e01b815260040161207891906128d3565b60206040518083038186803b15801561209057600080fd5b505afa1580156120a4573d6000803e3d6000fd5b505050506040513d601f19601f820116820180604052508101906120c891906123f2565b93505050505b919050565b60006001601060406120e59190612a32565b60026120f19190612adb565b6120fb9190612bf9565b82111561210b576000905061222b565b60008061211784612272565b915091506000600460008461ffff1661ffff16815260200190815260200160002060009054906101000a900473ffffffffffffffffffffffffffffffffffffffff169050600073ffffffffffffffffffffffffffffffffffffffff168173ffffffffffffffffffffffffffffffffffffffff16141561219c576000935050505061222b565b8073ffffffffffffffffffffffffffffffffffffffff1663b633620c836040518263ffffffff1660e01b81526004016121d591906128d3565b60206040518083038186803b1580156121ed57600080fd5b505afa158015612201573d6000803e3d6000fd5b505050506040513d601f19601f8201168201806040525081019061222591906124ae565b93505050505b919050565b600080600080600060016117706001806001945094509450945094509091929394565b60008167ffffffffffffffff1660408461ffff16901b17905092915050565b6000806000604084901c905060008490508181935093505050915091565b60006122a361229e8461299c565b612977565b9050828152602081018484840111156122bb57600080fd5b6122c6848285612d3f565b509392505050565b6000813590506122dd81612eec565b92915050565b6000815190506122f281612f03565b92915050565b60008151905061230781612f1a565b92915050565b600082601f83011261231e57600080fd5b815161232e848260208601612290565b91505092915050565b60008135905061234681612f31565b92915050565b60008135905061235b81612f48565b92915050565b60008151905061237081612f48565b92915050565b60008135905061238581612f5f565b92915050565b60008151905061239a81612f5f565b92915050565b6000602082840312156123b257600080fd5b60006123c0848285016122ce565b91505092915050565b6000602082840312156123db57600080fd5b60006123e9848285016122e3565b91505092915050565b60006020828403121561240457600080fd5b6000612412848285016122f8565b91505092915050565b60006020828403121561242d57600080fd5b600082015167ffffffffffffffff81111561244757600080fd5b6124538482850161230d565b91505092915050565b60006020828403121561246e57600080fd5b600061247c84828501612337565b91505092915050565b60006020828403121561249757600080fd5b60006124a58482850161234c565b91505092915050565b6000602082840312156124c057600080fd5b60006124ce84828501612361565b91505092915050565b6000602082840312156124e957600080fd5b60006124f784828501612376565b91505092915050565b600080600080600060a0868803121561251857600080fd5b60006125268882890161238b565b9550506020612537888289016122f8565b945050604061254888828901612361565b935050606061255988828901612361565b925050608061256a8882890161238b565b9150509295509295909350565b61258081612c3f565b82525050565b61258f81612c2d565b82525050565b60006125a183856129d8565b93506125ae838584612d30565b6125b783612e01565b840190509392505050565b6125cb81612cd6565b82525050565b6125da81612cfa565b82525050565b6125e981612c5d565b82525050565b60006125fa826129cd565b61260481856129e9565b9350612614818560208601612d3f565b61261d81612e01565b840191505092915050565b60006126356016836129e9565b915061264082612e1f565b602082019050919050565b60006126586016836129e9565b915061266382612e48565b602082019050919050565b600061267b601e836129e9565b915061268682612e71565b602082019050919050565b600061269e6009836129e9565b91506126a982612e9a565b602082019050919050565b60006126c1601b836129e9565b91506126cc82612ec3565b602082019050919050565b6126e081612c67565b82525050565b6126ef81612c95565b82525050565b6126fe81612d1e565b82525050565b61270d81612cc0565b82525050565b61271c81612cb3565b82525050565b60006020820190506127376000830184612586565b92915050565b60006020820190506127526000830184612577565b92915050565b600060408201905061276d6000830186612586565b8181036020830152612780818486612595565b9050949350505050565b600060208201905061279f60008301846125c2565b92915050565b60006020820190506127ba60008301846125d1565b92915050565b60006020820190506127d560008301846125e0565b92915050565b600060208201905081810360008301526127f581846125ef565b905092915050565b6000602082019050818103600083015261281681612628565b9050919050565b600060208201905081810360008301526128368161264b565b9050919050565b600060208201905081810360008301526128568161266e565b9050919050565b6000602082019050818103600083015261287681612691565b9050919050565b60006020820190508181036000830152612896816126b4565b9050919050565b60006020820190506128b260008301846126d7565b92915050565b60006020820190506128cd60008301846126e6565b92915050565b60006020820190506128e860008301846126f5565b92915050565b60006020820190506129036000830184612704565b92915050565b600060a08201905061291e6000830188612704565b61292b60208301876125e0565b61293860408301866126e6565b61294560608301856126e6565b6129526080830184612704565b9695505050505050565b60006020820190506129716000830184612713565b92915050565b6000612981612992565b905061298d8282612d72565b919050565b6000604051905090565b600067ffffffffffffffff8211156129b7576129b6612dd2565b5b6129c082612e01565b9050602081019050919050565b600081519050919050565b600082825260208201905092915050565b600082825260208201905092915050565b6000612a0582612c67565b9150612a1083612c67565b92508261ffff03821115612a2757612a26612da3565b5b828201905092915050565b6000612a3d82612c95565b9150612a4883612c95565b9250827fffffffffffffffffffffffffffffffffffffffffffffffffffffffffffffffff03821115612a7d57612a7c612da3565b5b828201905092915050565b6000808291508390505b6001851115612ad257808604811115612aae57612aad612da3565b5b6001851615612abd5780820291505b8081029050612acb85612e12565b9450612a92565b94509492505050565b6000612ae682612c95565b9150612af183612c95565b9250612b1e7fffffffffffffffffffffffffffffffffffffffffffffffffffffffffffffffff8484612b26565b905092915050565b600082612b365760019050612bf2565b81612b445760009050612bf2565b8160018114612b5a5760028114612b6457612b93565b6001915050612bf2565b60ff841115612b7657612b75612da3565b5b8360020a915084821115612b8d57612b8c612da3565b5b50612bf2565b5060208310610133831016604e8410600b8410161715612bc85782820a905083811115612bc357612bc2612da3565b5b612bf2565b612bd58484846001612a88565b92509050818404811115612bec57612beb612da3565b5b81810290505b9392505050565b6000612c0482612c95565b9150612c0f83612c95565b925082821015612c2257612c21612da3565b5b828203905092915050565b6000612c3882612c75565b9050919050565b6000612c4a82612c75565b9050919050565b60008115159050919050565b6000819050919050565b600061ffff82169050919050565b600073ffffffffffffffffffffffffffffffffffffffff82169050919050565b6000819050919050565b600067ffffffffffffffff82169050919050565b600060ff82169050919050565b600069ffffffffffffffffffff82169050919050565b6000612ce182612ce8565b9050919050565b6000612cf382612c75565b9050919050565b6000612d0582612d0c565b9050919050565b6000612d1782612c75565b9050919050565b6000612d2982612c9f565b9050919050565b82818337600083830152505050565b60005b83811015612d5d578082015181840152602081019050612d42565b83811115612d6c576000848401525b50505050565b612d7b82612e01565b810181811067ffffffffffffffff82111715612d9a57612d99612dd2565b5b80604052505050565b7f4e487b7100000000000000000000000000000000000000000000000000000000600052601160045260246000fd5b7f4e487b7100000000000000000000000000000000000000000000000000000000600052604160045260246000fd5b6000601f19601f8301169050919050565b60008160011c9050919050565b7f4d7573742062652070726f706f736564206f776e657200000000000000000000600082015250565b7f4f6e6c792063616c6c61626c65206279206f776e657200000000000000000000600082015250565b7f4e6f2070726f706f7365642061676772656761746f722070726573656e740000600082015250565b7f4e6f206163636573730000000000000000000000000000000000000000000000600082015250565b7f496e76616c69642070726f706f7365642061676772656761746f720000000000600082015250565b612ef581612c2d565b8114612f0057600080fd5b50565b612f0c81612c51565b8114612f1757600080fd5b50565b612f2381612c5d565b8114612f2e57600080fd5b50565b612f3a81612c67565b8114612f4557600080fd5b50565b612f5181612c95565b8114612f5c57600080fd5b50565b612f6881612cc0565b8114612f7357600080fd5b5056fea2646970667358221220f7c5e5d734bfe09bfc0960e8f2def7a728b7eeb77b934da1162acdf8091b6e7564736f6c63430008040033",
  "linkReferences": {},
  "deployedLinkReferences": {}
}