{
  "_format": "hh-sol-artifact-1",
  "contractName": "TokenRate",
  "sourceName": "contracts/TokenRate.sol",
  "abi": [
    {
      "inputs": [],
      "stateMutability": "payable",
      "type": "constructor"
    },
    {
      "anonymous": false,
      "inputs": [
        {
          "indexed": false,
          "internalType": "uint256",
          "name": "amount",
          "type": "uint256"
        },
        {
          "indexed": false,
          "internalType": "uint256",
          "name": "when",
          "type": "uint256"
        }
      ],
      "name": "Withdrawal",
      "type": "event"
    },
    {
      "inputs": [
        {
          "internalType": "address",
          "name": "firstTokenAddress",
          "type": "address"
        },
        {
          "internalType": "address",
          "name": "secondTokenAddress",
          "type": "address"
        }
      ],
      "name": "calculateTokenRate",
      "outputs": [
        {
          "internalType": "uint256",
          "name": "",
          "type": "uint256"
        },
        {
          "internalType": "uint256",
          "name": "",
          "type": "uint256"
        }
      ],
      "stateMutability": "view",
      "type": "function"
    },
    {
      "inputs": [
        {
          "internalType": "address",
          "name": "_token",
          "type": "address"
        }
      ],
      "name": "getOracle",
      "outputs": [
        {
          "internalType": "address",
          "name": "",
          "type": "address"
        }
      ],
      "stateMutability": "view",
      "type": "function"
    },
    {
      "inputs": [
        {
          "internalType": "address",
          "name": "tokenAddress",
          "type": "address"
        }
      ],
      "name": "getRateFromOracle",
      "outputs": [
        {
          "internalType": "int256",
          "name": "",
          "type": "int256"
        },
        {
          "internalType": "uint8",
          "name": "",
          "type": "uint8"
        }
      ],
      "stateMutability": "view",
      "type": "function"
    },
    {
      "inputs": [],
      "name": "owner",
      "outputs": [
        {
          "internalType": "address payable",
          "name": "",
          "type": "address"
        }
      ],
      "stateMutability": "view",
      "type": "function"
    },
    {
      "inputs": [
        {
          "internalType": "address",
          "name": "token_",
          "type": "address"
        }
      ],
      "name": "removeOracle",
      "outputs": [],
      "stateMutability": "nonpayable",
      "type": "function"
    },
    {
      "inputs": [
        {
          "internalType": "address",
          "name": "token_",
          "type": "address"
        },
        {
          "internalType": "address",
          "name": "oracle_",
          "type": "address"
        }
      ],
      "name": "setOracle",
      "outputs": [],
      "stateMutability": "nonpayable",
      "type": "function"
    }
  ],
  "bytecode": "0x6080604052336000806101000a81548173ffffffffffffffffffffffffffffffffffffffff021916908373ffffffffffffffffffffffffffffffffffffffff160217905550610d62806100536000396000f3fe608060405234801561001057600080fd5b50600436106100625760003560e01c806310d3d22e146100675780635c38eb3a146100975780637bd31831146100b35780638c2d3e04146100e45780638da5cb5b14610115578063fdc85fc414610133575b600080fd5b610081600480360381019061007c9190610776565b61014f565b60405161008e919061090c565b60405180910390f35b6100b160048036038101906100ac919061079f565b6101b8565b005b6100cd60048036038101906100c8919061079f565b610292565b6040516100db9291906109ab565b60405180910390f35b6100fe60048036038101906100f99190610776565b6102f4565b60405161010c929190610942565b60405180910390f35b61011d610540565b60405161012a9190610927565b60405180910390f35b61014d60048036038101906101489190610776565b610564565b005b6000600160008373ffffffffffffffffffffffffffffffffffffffff1673ffffffffffffffffffffffffffffffffffffffff16815260200190815260200160002060009054906101000a900473ffffffffffffffffffffffffffffffffffffffff169050919050565b60008054906101000a900473ffffffffffffffffffffffffffffffffffffffff1673ffffffffffffffffffffffffffffffffffffffff163373ffffffffffffffffffffffffffffffffffffffff161461021057600080fd5b80600160008473ffffffffffffffffffffffffffffffffffffffff1673ffffffffffffffffffffffffffffffffffffffff16815260200190815260200160002060006101000a81548173ffffffffffffffffffffffffffffffffffffffff021916908373ffffffffffffffffffffffffffffffffffffffff1602179055505050565b6000806000806102a1866102f4565b915091506000806102b1876102f4565b9150915080600a6102c29190610a38565b846102cd9190610b56565b83600a6102da9190610a38565b836102e59190610b56565b95509550505050509250929050565b600080600073ffffffffffffffffffffffffffffffffffffffff16600160008573ffffffffffffffffffffffffffffffffffffffff1673ffffffffffffffffffffffffffffffffffffffff16815260200190815260200160002060009054906101000a900473ffffffffffffffffffffffffffffffffffffffff1673ffffffffffffffffffffffffffffffffffffffff1614156103c6576040517f08c379a00000000000000000000000000000000000000000000000000000000081526004016103bd9061096b565b60405180910390fd5b6000600160008573ffffffffffffffffffffffffffffffffffffffff1673ffffffffffffffffffffffffffffffffffffffff16815260200190815260200160002060009054906101000a900473ffffffffffffffffffffffffffffffffffffffff16905060008173ffffffffffffffffffffffffffffffffffffffff1663feaf968c6040518163ffffffff1660e01b815260040160a06040518083038186803b15801561047257600080fd5b505afa158015610486573d6000803e3d6000fd5b505050506040513d601f19601f820116820180604052508101906104aa91906107db565b50505091505060008273ffffffffffffffffffffffffffffffffffffffff1663313ce5676040518163ffffffff1660e01b815260040160206040518083038186803b1580156104f857600080fd5b505afa15801561050c573d6000803e3d6000fd5b505050506040513d601f19601f820116820180604052508101906105309190610852565b9050818194509450505050915091565b60008054906101000a900473ffffffffffffffffffffffffffffffffffffffff1681565b60008054906101000a900473ffffffffffffffffffffffffffffffffffffffff1673ffffffffffffffffffffffffffffffffffffffff163373ffffffffffffffffffffffffffffffffffffffff16146105bc57600080fd5b600073ffffffffffffffffffffffffffffffffffffffff16600160008373ffffffffffffffffffffffffffffffffffffffff1673ffffffffffffffffffffffffffffffffffffffff16815260200190815260200160002060009054906101000a900473ffffffffffffffffffffffffffffffffffffffff1673ffffffffffffffffffffffffffffffffffffffff16141561068b576040517f08c379a00000000000000000000000000000000000000000000000000000000081526004016106829061098b565b60405180910390fd5b6000600160008373ffffffffffffffffffffffffffffffffffffffff1673ffffffffffffffffffffffffffffffffffffffff16815260200190815260200160002060006101000a81548173ffffffffffffffffffffffffffffffffffffffff021916908373ffffffffffffffffffffffffffffffffffffffff16021790555050565b60008135905061071c81610cb9565b92915050565b60008151905061073181610cd0565b92915050565b60008151905061074681610ce7565b92915050565b60008151905061075b81610d15565b92915050565b60008151905061077081610cfe565b92915050565b60006020828403121561078857600080fd5b60006107968482850161070d565b91505092915050565b600080604083850312156107b257600080fd5b60006107c08582860161070d565b92505060206107d18582860161070d565b9150509250929050565b600080600080600060a086880312156107f357600080fd5b60006108018882890161074c565b955050602061081288828901610722565b945050604061082388828901610737565b935050606061083488828901610737565b92505060806108458882890161074c565b9150509295509295909350565b60006020828403121561086457600080fd5b600061087284828501610761565b91505092915050565b61088481610bc2565b82525050565b61089381610bb0565b82525050565b6108a281610bd4565b82525050565b60006108b5600d836109d4565b91506108c082610c67565b602082019050919050565b60006108d86020836109d4565b91506108e382610c90565b602082019050919050565b6108f781610bfe565b82525050565b61090681610c08565b82525050565b6000602082019050610921600083018461088a565b92915050565b600060208201905061093c600083018461087b565b92915050565b60006040820190506109576000830185610899565b61096460208301846108fd565b9392505050565b60006020820190508181036000830152610984816108a8565b9050919050565b600060208201905081810360008301526109a4816108cb565b9050919050565b60006040820190506109c060008301856108ee565b6109cd60208301846108ee565b9392505050565b600082825260208201905092915050565b6000808291508390505b6001851115610a2f57808604811115610a0b57610a0a610c2b565b5b6001851615610a1a5780820291505b8081029050610a2885610c5a565b94506109ef565b94509492505050565b6000610a4382610bfe565b9150610a4e83610c08565b9250610a7b7fffffffffffffffffffffffffffffffffffffffffffffffffffffffffffffffff8484610a83565b905092915050565b600082610a935760019050610b4f565b81610aa15760009050610b4f565b8160018114610ab75760028114610ac157610af0565b6001915050610b4f565b60ff841115610ad357610ad2610c2b565b5b8360020a915084821115610aea57610ae9610c2b565b5b50610b4f565b5060208310610133831016604e8410600b8410161715610b255782820a905083811115610b2057610b1f610c2b565b5b610b4f565b610b3284848460016109e5565b92509050818404811115610b4957610b48610c2b565b5b81810290505b9392505050565b6000610b6182610bfe565b9150610b6c83610bfe565b9250817fffffffffffffffffffffffffffffffffffffffffffffffffffffffffffffffff0483118215151615610ba557610ba4610c2b565b5b828202905092915050565b6000610bbb82610bde565b9050919050565b6000610bcd82610bde565b9050919050565b6000819050919050565b600073ffffffffffffffffffffffffffffffffffffffff82169050919050565b6000819050919050565b600060ff82169050919050565b600069ffffffffffffffffffff82169050919050565b7f4e487b7100000000000000000000000000000000000000000000000000000000600052601160045260246000fd5b60008160011c9050919050565b7f6e6f7420617661696c61626c6500000000000000000000000000000000000000600082015250565b7f616c72656164792072656d6f766564206f72206e657665722065786973746564600082015250565b610cc281610bb0565b8114610ccd57600080fd5b50565b610cd981610bd4565b8114610ce457600080fd5b50565b610cf081610bfe565b8114610cfb57600080fd5b50565b610d0781610c08565b8114610d1257600080fd5b50565b610d1e81610c15565b8114610d2957600080fd5b5056fea264697066735822122020cd7177ea55edcbc031bf10e41a9f9321725473c0f6cbfc20853e51cd21e40164736f6c63430008040033",
  "linkReferences": {},
  "deployedLinkReferences": {}
}