{
  "_format": "hh-sol-artifact-1",
  "contractName": "TokenRate",
  "sourceName": "contracts/TokenRate.sol",
  "abi": [
    {
      "inputs": [],
      "stateMutability": "payable",
      "type": "constructor"
    },
    {
      "anonymous": false,
      "inputs": [
        {
          "indexed": true,
          "internalType": "address",
          "name": "previousOwner",
          "type": "address"
        },
        {
          "indexed": true,
          "internalType": "address",
          "name": "newOwner",
          "type": "address"
        }
      ],
      "name": "OwnershipTransferred",
      "type": "event"
    },
    {
      "anonymous": false,
      "inputs": [
        {
          "indexed": false,
          "internalType": "uint256",
          "name": "amount",
          "type": "uint256"
        },
        {
          "indexed": false,
          "internalType": "uint256",
          "name": "when",
          "type": "uint256"
        }
      ],
      "name": "Withdrawal",
      "type": "event"
    },
    {
      "inputs": [
        {
          "internalType": "address",
          "name": "firstTokenAddress",
          "type": "address"
        },
        {
          "internalType": "address",
          "name": "secondTokenAddress",
          "type": "address"
        }
      ],
      "name": "calculateTokenRate",
      "outputs": [
        {
          "internalType": "uint256",
          "name": "",
          "type": "uint256"
        },
        {
          "internalType": "uint256",
          "name": "",
          "type": "uint256"
        }
      ],
      "stateMutability": "view",
      "type": "function"
    },
    {
      "inputs": [
        {
          "internalType": "address",
          "name": "_token",
          "type": "address"
        }
      ],
      "name": "getOracle",
      "outputs": [
        {
          "internalType": "address",
          "name": "",
          "type": "address"
        }
      ],
      "stateMutability": "view",
      "type": "function"
    },
    {
      "inputs": [
        {
          "internalType": "address",
          "name": "tokenAddress",
          "type": "address"
        }
      ],
      "name": "getRateFromOracle",
      "outputs": [
        {
          "internalType": "int256",
          "name": "",
          "type": "int256"
        },
        {
          "internalType": "uint8",
          "name": "",
          "type": "uint8"
        }
      ],
      "stateMutability": "view",
      "type": "function"
    },
    {
      "inputs": [],
      "name": "owner",
      "outputs": [
        {
          "internalType": "address",
          "name": "",
          "type": "address"
        }
      ],
      "stateMutability": "view",
      "type": "function"
    },
    {
      "inputs": [
        {
          "internalType": "address",
          "name": "token_",
          "type": "address"
        }
      ],
      "name": "removeOracle",
      "outputs": [],
      "stateMutability": "nonpayable",
      "type": "function"
    },
    {
      "inputs": [],
      "name": "renounceOwnership",
      "outputs": [],
      "stateMutability": "nonpayable",
      "type": "function"
    },
    {
      "inputs": [
        {
          "internalType": "address",
          "name": "token_",
          "type": "address"
        },
        {
          "internalType": "address",
          "name": "oracle_",
          "type": "address"
        }
      ],
      "name": "setOracle",
      "outputs": [],
      "stateMutability": "nonpayable",
      "type": "function"
    },
    {
      "inputs": [
        {
          "internalType": "address",
          "name": "newOwner",
          "type": "address"
        }
      ],
      "name": "transferOwnership",
      "outputs": [],
      "stateMutability": "nonpayable",
      "type": "function"
    }
  ],
  "bytecode": "0x608060405262000024620000186200003b60201b60201c565b6200004360201b60201c565b62000035336200010760201b60201c565b62000373565b600033905090565b60008060009054906101000a900473ffffffffffffffffffffffffffffffffffffffff169050816000806101000a81548173ffffffffffffffffffffffffffffffffffffffff021916908373ffffffffffffffffffffffffffffffffffffffff1602179055508173ffffffffffffffffffffffffffffffffffffffff168173ffffffffffffffffffffffffffffffffffffffff167f8be0079c531659141344cd1fd0a4f28419497f9722a3daafe3b4186f6b6457e060405160405180910390a35050565b620001176200019e60201b60201c565b600073ffffffffffffffffffffffffffffffffffffffff168173ffffffffffffffffffffffffffffffffffffffff1614156200018a576040517f08c379a00000000000000000000000000000000000000000000000000000000081526004016200018190620002a6565b60405180910390fd5b6200019b816200004360201b60201c565b50565b620001ae6200003b60201b60201c565b73ffffffffffffffffffffffffffffffffffffffff16620001d46200022f60201b60201c565b73ffffffffffffffffffffffffffffffffffffffff16146200022d576040517f08c379a00000000000000000000000000000000000000000000000000000000081526004016200022490620002c8565b60405180910390fd5b565b60008060009054906101000a900473ffffffffffffffffffffffffffffffffffffffff16905090565b600062000267602683620002ea565b91506200027482620002fb565b604082019050919050565b60006200028e602083620002ea565b91506200029b826200034a565b602082019050919050565b60006020820190508181036000830152620002c18162000258565b9050919050565b60006020820190508181036000830152620002e3816200027f565b9050919050565b600082825260208201905092915050565b7f4f776e61626c653a206e6577206f776e657220697320746865207a65726f206160008201527f6464726573730000000000000000000000000000000000000000000000000000602082015250565b7f4f776e61626c653a2063616c6c6572206973206e6f7420746865206f776e6572600082015250565b610fdd80620003836000396000f3fe608060405234801561001057600080fd5b50600436106100885760003560e01c80638c2d3e041161005b5780638c2d3e04146101145780638da5cb5b14610145578063f2fde38b14610163578063fdc85fc41461017f57610088565b806310d3d22e1461008d5780635c38eb3a146100bd578063715018a6146100d95780637bd31831146100e3575b600080fd5b6100a760048036038101906100a29190610909565b61019b565b6040516100b49190610ad6565b60405180910390f35b6100d760048036038101906100d29190610932565b610204565b005b6100e161028e565b005b6100fd60048036038101906100f89190610932565b6102a2565b60405161010b929190610b9a565b60405180910390f35b61012e60048036038101906101299190610909565b610304565b60405161013c929190610af1565b60405180910390f35b61014d610550565b60405161015a9190610ad6565b60405180910390f35b61017d60048036038101906101789190610909565b610579565b005b61019960048036038101906101949190610909565b6105fd565b005b6000600160008373ffffffffffffffffffffffffffffffffffffffff1673ffffffffffffffffffffffffffffffffffffffff16815260200190815260200160002060009054906101000a900473ffffffffffffffffffffffffffffffffffffffff169050919050565b61020c610756565b80600160008473ffffffffffffffffffffffffffffffffffffffff1673ffffffffffffffffffffffffffffffffffffffff16815260200190815260200160002060006101000a81548173ffffffffffffffffffffffffffffffffffffffff021916908373ffffffffffffffffffffffffffffffffffffffff1602179055505050565b610296610756565b6102a060006107d4565b565b6000806000806102b186610304565b915091506000806102c187610304565b9150915080600a6102d29190610c27565b846102dd9190610d45565b83600a6102ea9190610c27565b836102f59190610d45565b95509550505050509250929050565b600080600073ffffffffffffffffffffffffffffffffffffffff16600160008573ffffffffffffffffffffffffffffffffffffffff1673ffffffffffffffffffffffffffffffffffffffff16815260200190815260200160002060009054906101000a900473ffffffffffffffffffffffffffffffffffffffff1673ffffffffffffffffffffffffffffffffffffffff1614156103d6576040517f08c379a00000000000000000000000000000000000000000000000000000000081526004016103cd90610b7a565b60405180910390fd5b6000600160008573ffffffffffffffffffffffffffffffffffffffff1673ffffffffffffffffffffffffffffffffffffffff16815260200190815260200160002060009054906101000a900473ffffffffffffffffffffffffffffffffffffffff16905060008173ffffffffffffffffffffffffffffffffffffffff1663feaf968c6040518163ffffffff1660e01b815260040160a06040518083038186803b15801561048257600080fd5b505afa158015610496573d6000803e3d6000fd5b505050506040513d601f19601f820116820180604052508101906104ba919061096e565b50505091505060008273ffffffffffffffffffffffffffffffffffffffff1663313ce5676040518163ffffffff1660e01b815260040160206040518083038186803b15801561050857600080fd5b505afa15801561051c573d6000803e3d6000fd5b505050506040513d601f19601f8201168201806040525081019061054091906109e5565b9050818194509450505050915091565b60008060009054906101000a900473ffffffffffffffffffffffffffffffffffffffff16905090565b610581610756565b600073ffffffffffffffffffffffffffffffffffffffff168173ffffffffffffffffffffffffffffffffffffffff1614156105f1576040517f08c379a00000000000000000000000000000000000000000000000000000000081526004016105e890610b1a565b60405180910390fd5b6105fa816107d4565b50565b610605610756565b600073ffffffffffffffffffffffffffffffffffffffff16600160008373ffffffffffffffffffffffffffffffffffffffff1673ffffffffffffffffffffffffffffffffffffffff16815260200190815260200160002060009054906101000a900473ffffffffffffffffffffffffffffffffffffffff1673ffffffffffffffffffffffffffffffffffffffff1614156106d4576040517f08c379a00000000000000000000000000000000000000000000000000000000081526004016106cb90610b3a565b60405180910390fd5b6000600160008373ffffffffffffffffffffffffffffffffffffffff1673ffffffffffffffffffffffffffffffffffffffff16815260200190815260200160002060006101000a81548173ffffffffffffffffffffffffffffffffffffffff021916908373ffffffffffffffffffffffffffffffffffffffff16021790555050565b61075e610898565b73ffffffffffffffffffffffffffffffffffffffff1661077c610550565b73ffffffffffffffffffffffffffffffffffffffff16146107d2576040517f08c379a00000000000000000000000000000000000000000000000000000000081526004016107c990610b5a565b60405180910390fd5b565b60008060009054906101000a900473ffffffffffffffffffffffffffffffffffffffff169050816000806101000a81548173ffffffffffffffffffffffffffffffffffffffff021916908373ffffffffffffffffffffffffffffffffffffffff1602179055508173ffffffffffffffffffffffffffffffffffffffff168173ffffffffffffffffffffffffffffffffffffffff167f8be0079c531659141344cd1fd0a4f28419497f9722a3daafe3b4186f6b6457e060405160405180910390a35050565b600033905090565b6000813590506108af81610f34565b92915050565b6000815190506108c481610f4b565b92915050565b6000815190506108d981610f62565b92915050565b6000815190506108ee81610f90565b92915050565b60008151905061090381610f79565b92915050565b60006020828403121561091b57600080fd5b6000610929848285016108a0565b91505092915050565b6000806040838503121561094557600080fd5b6000610953858286016108a0565b9250506020610964858286016108a0565b9150509250929050565b600080600080600060a0868803121561098657600080fd5b6000610994888289016108df565b95505060206109a5888289016108b5565b94505060406109b6888289016108ca565b93505060606109c7888289016108ca565b92505060806109d8888289016108df565b9150509295509295909350565b6000602082840312156109f757600080fd5b6000610a05848285016108f4565b91505092915050565b610a1781610d9f565b82525050565b610a2681610db1565b82525050565b6000610a39602683610bc3565b9150610a4482610e44565b604082019050919050565b6000610a5c602b83610bc3565b9150610a6782610e93565b604082019050919050565b6000610a7f602083610bc3565b9150610a8a82610ee2565b602082019050919050565b6000610aa2601883610bc3565b9150610aad82610f0b565b602082019050919050565b610ac181610ddb565b82525050565b610ad081610de5565b82525050565b6000602082019050610aeb6000830184610a0e565b92915050565b6000604082019050610b066000830185610a1d565b610b136020830184610ac7565b9392505050565b60006020820190508181036000830152610b3381610a2c565b9050919050565b60006020820190508181036000830152610b5381610a4f565b9050919050565b60006020820190508181036000830152610b7381610a72565b9050919050565b60006020820190508181036000830152610b9381610a95565b9050919050565b6000604082019050610baf6000830185610ab8565b610bbc6020830184610ab8565b9392505050565b600082825260208201905092915050565b6000808291508390505b6001851115610c1e57808604811115610bfa57610bf9610e08565b5b6001851615610c095780820291505b8081029050610c1785610e37565b9450610bde565b94509492505050565b6000610c3282610ddb565b9150610c3d83610de5565b9250610c6a7fffffffffffffffffffffffffffffffffffffffffffffffffffffffffffffffff8484610c72565b905092915050565b600082610c825760019050610d3e565b81610c905760009050610d3e565b8160018114610ca65760028114610cb057610cdf565b6001915050610d3e565b60ff841115610cc257610cc1610e08565b5b8360020a915084821115610cd957610cd8610e08565b5b50610d3e565b5060208310610133831016604e8410600b8410161715610d145782820a905083811115610d0f57610d0e610e08565b5b610d3e565b610d218484846001610bd4565b92509050818404811115610d3857610d37610e08565b5b81810290505b9392505050565b6000610d5082610ddb565b9150610d5b83610ddb565b9250817fffffffffffffffffffffffffffffffffffffffffffffffffffffffffffffffff0483118215151615610d9457610d93610e08565b5b828202905092915050565b6000610daa82610dbb565b9050919050565b6000819050919050565b600073ffffffffffffffffffffffffffffffffffffffff82169050919050565b6000819050919050565b600060ff82169050919050565b600069ffffffffffffffffffff82169050919050565b7f4e487b7100000000000000000000000000000000000000000000000000000000600052601160045260246000fd5b60008160011c9050919050565b7f4f776e61626c653a206e6577206f776e657220697320746865207a65726f206160008201527f6464726573730000000000000000000000000000000000000000000000000000602082015250565b7f546f6b656e526174653a20616c72656164792072656d6f766564206f72206e6560008201527f7665722065786973746564000000000000000000000000000000000000000000602082015250565b7f4f776e61626c653a2063616c6c6572206973206e6f7420746865206f776e6572600082015250565b7f546f6b656e526174653a206e6f7420617661696c61626c650000000000000000600082015250565b610f3d81610d9f565b8114610f4857600080fd5b50565b610f5481610db1565b8114610f5f57600080fd5b50565b610f6b81610ddb565b8114610f7657600080fd5b50565b610f8281610de5565b8114610f8d57600080fd5b50565b610f9981610df2565b8114610fa457600080fd5b5056fea2646970667358221220dc192ef04dd225bd667de7b29a176a65ca22db3bf2ebe84c281e598b929184b464736f6c63430008040033",
  "linkReferences": {},
  "deployedLinkReferences": {}
}