{
  "_format": "hh-sol-artifact-1",
  "contractName": "AggregatorProxyUSDC",
  "sourceName": "contracts/oracleUSDC.sol",
  "abi": [
    {
      "inputs": [
        {
          "internalType": "address",
          "name": "_aggregator",
          "type": "address"
        }
      ],
      "stateMutability": "nonpayable",
      "type": "constructor"
    },
    {
      "anonymous": false,
      "inputs": [
        {
          "indexed": true,
          "internalType": "int256",
          "name": "current",
          "type": "int256"
        },
        {
          "indexed": true,
          "internalType": "uint256",
          "name": "roundId",
          "type": "uint256"
        },
        {
          "indexed": false,
          "internalType": "uint256",
          "name": "updatedAt",
          "type": "uint256"
        }
      ],
      "name": "AnswerUpdated",
      "type": "event"
    },
    {
      "anonymous": false,
      "inputs": [
        {
          "indexed": true,
          "internalType": "uint256",
          "name": "roundId",
          "type": "uint256"
        },
        {
          "indexed": true,
          "internalType": "address",
          "name": "startedBy",
          "type": "address"
        },
        {
          "indexed": false,
          "internalType": "uint256",
          "name": "startedAt",
          "type": "uint256"
        }
      ],
      "name": "NewRound",
      "type": "event"
    },
    {
      "anonymous": false,
      "inputs": [
        {
          "indexed": true,
          "internalType": "address",
          "name": "from",
          "type": "address"
        },
        {
          "indexed": true,
          "internalType": "address",
          "name": "to",
          "type": "address"
        }
      ],
      "name": "OwnershipTransferRequested",
      "type": "event"
    },
    {
      "anonymous": false,
      "inputs": [
        {
          "indexed": true,
          "internalType": "address",
          "name": "from",
          "type": "address"
        },
        {
          "indexed": true,
          "internalType": "address",
          "name": "to",
          "type": "address"
        }
      ],
      "name": "OwnershipTransferred",
      "type": "event"
    },
    {
      "inputs": [],
      "name": "acceptOwnership",
      "outputs": [],
      "stateMutability": "nonpayable",
      "type": "function"
    },
    {
      "inputs": [],
      "name": "aggregator",
      "outputs": [
        {
          "internalType": "address",
          "name": "",
          "type": "address"
        }
      ],
      "stateMutability": "view",
      "type": "function"
    },
    {
      "inputs": [
        {
          "internalType": "address",
          "name": "_aggregator",
          "type": "address"
        }
      ],
      "name": "confirmAggregator",
      "outputs": [],
      "stateMutability": "nonpayable",
      "type": "function"
    },
    {
      "inputs": [],
      "name": "decimals",
      "outputs": [
        {
          "internalType": "uint8",
          "name": "",
          "type": "uint8"
        }
      ],
      "stateMutability": "view",
      "type": "function"
    },
    {
      "inputs": [],
      "name": "description",
      "outputs": [
        {
          "internalType": "string",
          "name": "",
          "type": "string"
        }
      ],
      "stateMutability": "view",
      "type": "function"
    },
    {
      "inputs": [
        {
          "internalType": "uint256",
          "name": "_roundId",
          "type": "uint256"
        }
      ],
      "name": "getAnswer",
      "outputs": [
        {
          "internalType": "int256",
          "name": "answer",
          "type": "int256"
        }
      ],
      "stateMutability": "view",
      "type": "function"
    },
    {
      "inputs": [
        {
          "internalType": "uint80",
          "name": "_roundId",
          "type": "uint80"
        }
      ],
      "name": "getRoundData",
      "outputs": [
        {
          "internalType": "uint80",
          "name": "roundId",
          "type": "uint80"
        },
        {
          "internalType": "int256",
          "name": "answer",
          "type": "int256"
        },
        {
          "internalType": "uint256",
          "name": "startedAt",
          "type": "uint256"
        },
        {
          "internalType": "uint256",
          "name": "updatedAt",
          "type": "uint256"
        },
        {
          "internalType": "uint80",
          "name": "answeredInRound",
          "type": "uint80"
        }
      ],
      "stateMutability": "view",
      "type": "function"
    },
    {
      "inputs": [
        {
          "internalType": "uint256",
          "name": "_roundId",
          "type": "uint256"
        }
      ],
      "name": "getTimestamp",
      "outputs": [
        {
          "internalType": "uint256",
          "name": "updatedAt",
          "type": "uint256"
        }
      ],
      "stateMutability": "view",
      "type": "function"
    },
    {
      "inputs": [],
      "name": "latestAnswer",
      "outputs": [
        {
          "internalType": "int256",
          "name": "answer",
          "type": "int256"
        }
      ],
      "stateMutability": "view",
      "type": "function"
    },
    {
      "inputs": [],
      "name": "latestRound",
      "outputs": [
        {
          "internalType": "uint256",
          "name": "roundId",
          "type": "uint256"
        }
      ],
      "stateMutability": "view",
      "type": "function"
    },
    {
      "inputs": [],
      "name": "latestRoundData",
      "outputs": [
        {
          "internalType": "uint80",
          "name": "roundId",
          "type": "uint80"
        },
        {
          "internalType": "int256",
          "name": "answer",
          "type": "int256"
        },
        {
          "internalType": "uint256",
          "name": "startedAt",
          "type": "uint256"
        },
        {
          "internalType": "uint256",
          "name": "updatedAt",
          "type": "uint256"
        },
        {
          "internalType": "uint80",
          "name": "answeredInRound",
          "type": "uint80"
        }
      ],
      "stateMutability": "view",
      "type": "function"
    },
    {
      "inputs": [],
      "name": "latestTimestamp",
      "outputs": [
        {
          "internalType": "uint256",
          "name": "updatedAt",
          "type": "uint256"
        }
      ],
      "stateMutability": "view",
      "type": "function"
    },
    {
      "inputs": [],
      "name": "owner",
      "outputs": [
        {
          "internalType": "address payable",
          "name": "",
          "type": "address"
        }
      ],
      "stateMutability": "view",
      "type": "function"
    },
    {
      "inputs": [
        {
          "internalType": "uint16",
          "name": "",
          "type": "uint16"
        }
      ],
      "name": "phaseAggregators",
      "outputs": [
        {
          "internalType": "contract AggregatorV2V3Interface",
          "name": "",
          "type": "address"
        }
      ],
      "stateMutability": "view",
      "type": "function"
    },
    {
      "inputs": [],
      "name": "phaseId",
      "outputs": [
        {
          "internalType": "uint16",
          "name": "",
          "type": "uint16"
        }
      ],
      "stateMutability": "view",
      "type": "function"
    },
    {
      "inputs": [
        {
          "internalType": "address",
          "name": "_aggregator",
          "type": "address"
        }
      ],
      "name": "proposeAggregator",
      "outputs": [],
      "stateMutability": "nonpayable",
      "type": "function"
    },
    {
      "inputs": [],
      "name": "proposedAggregator",
      "outputs": [
        {
          "internalType": "contract AggregatorV2V3Interface",
          "name": "",
          "type": "address"
        }
      ],
      "stateMutability": "view",
      "type": "function"
    },
    {
      "inputs": [
        {
          "internalType": "uint80",
          "name": "_roundId",
          "type": "uint80"
        }
      ],
      "name": "proposedGetRoundData",
      "outputs": [
        {
          "internalType": "uint80",
          "name": "roundId",
          "type": "uint80"
        },
        {
          "internalType": "int256",
          "name": "answer",
          "type": "int256"
        },
        {
          "internalType": "uint256",
          "name": "startedAt",
          "type": "uint256"
        },
        {
          "internalType": "uint256",
          "name": "updatedAt",
          "type": "uint256"
        },
        {
          "internalType": "uint80",
          "name": "answeredInRound",
          "type": "uint80"
        }
      ],
      "stateMutability": "view",
      "type": "function"
    },
    {
      "inputs": [],
      "name": "proposedLatestRoundData",
      "outputs": [
        {
          "internalType": "uint80",
          "name": "roundId",
          "type": "uint80"
        },
        {
          "internalType": "int256",
          "name": "answer",
          "type": "int256"
        },
        {
          "internalType": "uint256",
          "name": "startedAt",
          "type": "uint256"
        },
        {
          "internalType": "uint256",
          "name": "updatedAt",
          "type": "uint256"
        },
        {
          "internalType": "uint80",
          "name": "answeredInRound",
          "type": "uint80"
        }
      ],
      "stateMutability": "view",
      "type": "function"
    },
    {
      "inputs": [
        {
          "internalType": "address",
          "name": "_to",
          "type": "address"
        }
      ],
      "name": "transferOwnership",
      "outputs": [],
      "stateMutability": "nonpayable",
      "type": "function"
    },
    {
      "inputs": [],
      "name": "version",
      "outputs": [
        {
          "internalType": "uint256",
          "name": "",
          "type": "uint256"
        }
      ],
      "stateMutability": "view",
      "type": "function"
    }
  ],
  "bytecode": "0x60806040523480156200001157600080fd5b5060405162002314380380620023148339818101604052810190620000379190620001c8565b336000806101000a81548173ffffffffffffffffffffffffffffffffffffffff021916908373ffffffffffffffffffffffffffffffffffffffff16021790555062000088816200008f60201b60201c565b50620002be565b60006001600260000160009054906101000a900461ffff16620000b39190620001f4565b905060405180604001604052808261ffff1681526020018373ffffffffffffffffffffffffffffffffffffffff16815250600260008201518160000160006101000a81548161ffff021916908361ffff16021790555060208201518160000160026101000a81548173ffffffffffffffffffffffffffffffffffffffff021916908373ffffffffffffffffffffffffffffffffffffffff16021790555090505081600460008361ffff1661ffff16815260200190815260200160002060006101000a81548173ffffffffffffffffffffffffffffffffffffffff021916908373ffffffffffffffffffffffffffffffffffffffff1602179055505050565b600081519050620001c281620002a4565b92915050565b600060208284031215620001db57600080fd5b6000620001eb84828501620001b1565b91505092915050565b6000620002018262000247565b91506200020e8362000247565b92508261ffff0382111562000228576200022762000275565b5b828201905092915050565b6000620002408262000255565b9050919050565b600061ffff82169050919050565b600073ffffffffffffffffffffffffffffffffffffffff82169050919050565b7f4e487b7100000000000000000000000000000000000000000000000000000000600052601160045260246000fd5b620002af8162000233565b8114620002bb57600080fd5b50565b61204680620002ce6000396000f3fe608060405234801561001057600080fd5b50600436106101375760003560e01c80638da5cb5b116100b8578063b633620c1161007c578063b633620c1461032a578063c15973041461035a578063e8c4be301461038a578063f2fde38b146103a8578063f8a2abd3146103c4578063feaf968c146103e057610137565b80638da5cb5b1461026a5780638f6b4d91146102885780639a6fc8f5146102aa578063a928c096146102de578063b5ab58dc146102fa57610137565b80636001ac53116100ff5780636001ac53146101d2578063668a0f02146102065780637284e4161461022457806379ba5097146102425780638205bf6a1461024c57610137565b8063245a7bfc1461013c578063313ce5671461015a57806350d25bcd1461017857806354fd4d501461019657806358303b10146101b4575b600080fd5b610144610402565b60405161015191906118b9565b60405180910390f35b61016261042f565b60405161016f9190611a86565b60405180910390f35b610180610438565b60405161018d919061190a565b60405180910390f35b61019e6104e2565b6040516101ab91906119e2565b60405180910390f35b6101bc61058c565b6040516101c991906119c7565b60405180910390f35b6101ec60048036038101906101e791906116cd565b6105a7565b6040516101fd959493929190611a33565b60405180910390f35b61020e6106fe565b60405161021b91906119e2565b60405180910390f35b61022c610827565b6040516102399190611925565b60405180910390f35b61024a6108d6565b005b610254610a6b565b60405161026191906119e2565b60405180910390f35b610272610b15565b60405161027f91906118d4565b60405180910390f35b610290610b39565b6040516102a1959493929190611a33565b60405180910390f35b6102c460048036038101906102bf91906116cd565b610c83565b6040516102d5959493929190611a33565b60405180910390f35b6102f860048036038101906102f391906115bf565b610cc5565b005b610314600480360381019061030f919061167b565b610e14565b604051610321919061190a565b60405180910390f35b610344600480360381019061033f919061167b565b610f71565b60405161035191906119e2565b60405180910390f35b610374600480360381019061036f9190611652565b6110ce565b60405161038191906118ef565b60405180910390f35b610392611101565b60405161039f91906118ef565b60405180910390f35b6103c260048036038101906103bd91906115bf565b611127565b005b6103de60048036038101906103d991906115bf565b611273565b005b6103e8611345565b6040516103f9959493929190611a33565b60405180910390f35b6000600260000160029054906101000a900473ffffffffffffffffffffffffffffffffffffffff16905090565b60006008905090565b6000600260000160029054906101000a900473ffffffffffffffffffffffffffffffffffffffff1673ffffffffffffffffffffffffffffffffffffffff166350d25bcd6040518163ffffffff1660e01b815260040160206040518083038186803b1580156104a557600080fd5b505afa1580156104b9573d6000803e3d6000fd5b505050506040513d601f19601f820116820180604052508101906104dd91906115e8565b905090565b6000600260000160029054906101000a900473ffffffffffffffffffffffffffffffffffffffff1673ffffffffffffffffffffffffffffffffffffffff166354fd4d506040518163ffffffff1660e01b815260040160206040518083038186803b15801561054f57600080fd5b505afa158015610563573d6000803e3d6000fd5b505050506040513d601f19601f8201168201806040525081019061058791906116a4565b905090565b6000600260000160009054906101000a900461ffff16905090565b60008060008060008073ffffffffffffffffffffffffffffffffffffffff16600360009054906101000a900473ffffffffffffffffffffffffffffffffffffffff1673ffffffffffffffffffffffffffffffffffffffff161415610640576040517f08c379a000000000000000000000000000000000000000000000000000000000815260040161063790611987565b60405180910390fd5b600360009054906101000a900473ffffffffffffffffffffffffffffffffffffffff1673ffffffffffffffffffffffffffffffffffffffff16639a6fc8f5876040518263ffffffff1660e01b815260040161069b9190611a18565b60a06040518083038186803b1580156106b357600080fd5b505afa1580156106c7573d6000803e3d6000fd5b505050506040513d601f19601f820116820180604052508101906106eb91906116f6565b9450945094509450945091939590929450565b60008060026040518060400160405290816000820160009054906101000a900461ffff1661ffff1661ffff1681526020016000820160029054906101000a900473ffffffffffffffffffffffffffffffffffffffff1673ffffffffffffffffffffffffffffffffffffffff1673ffffffffffffffffffffffffffffffffffffffff168152505090506108158160000151826020015173ffffffffffffffffffffffffffffffffffffffff1663668a0f026040518163ffffffff1660e01b815260040160206040518083038186803b1580156107d857600080fd5b505afa1580156107ec573d6000803e3d6000fd5b505050506040513d601f19601f8201168201806040525081019061081091906116a4565b611367565b69ffffffffffffffffffff1691505090565b6060600260000160029054906101000a900473ffffffffffffffffffffffffffffffffffffffff1673ffffffffffffffffffffffffffffffffffffffff16637284e4166040518163ffffffff1660e01b815260040160006040518083038186803b15801561089457600080fd5b505afa1580156108a8573d6000803e3d6000fd5b505050506040513d6000823e3d601f19601f820116820180604052508101906108d19190611611565b905090565b600160009054906101000a900473ffffffffffffffffffffffffffffffffffffffff1673ffffffffffffffffffffffffffffffffffffffff163373ffffffffffffffffffffffffffffffffffffffff1614610966576040517f08c379a000000000000000000000000000000000000000000000000000000000815260040161095d90611947565b60405180910390fd5b60008060009054906101000a900473ffffffffffffffffffffffffffffffffffffffff169050336000806101000a81548173ffffffffffffffffffffffffffffffffffffffff021916908373ffffffffffffffffffffffffffffffffffffffff1602179055506000600160006101000a81548173ffffffffffffffffffffffffffffffffffffffff021916908373ffffffffffffffffffffffffffffffffffffffff1602179055503373ffffffffffffffffffffffffffffffffffffffff168173ffffffffffffffffffffffffffffffffffffffff167f8be0079c531659141344cd1fd0a4f28419497f9722a3daafe3b4186f6b6457e060405160405180910390a350565b6000600260000160029054906101000a900473ffffffffffffffffffffffffffffffffffffffff1673ffffffffffffffffffffffffffffffffffffffff16638205bf6a6040518163ffffffff1660e01b815260040160206040518083038186803b158015610ad857600080fd5b505afa158015610aec573d6000803e3d6000fd5b505050506040513d601f19601f82011682018060405250810190610b1091906116a4565b905090565b60008054906101000a900473ffffffffffffffffffffffffffffffffffffffff1681565b60008060008060008073ffffffffffffffffffffffffffffffffffffffff16600360009054906101000a900473ffffffffffffffffffffffffffffffffffffffff1673ffffffffffffffffffffffffffffffffffffffff161415610bd2576040517f08c379a0000000000000000000000000000000000000000000000000000000008152600401610bc990611987565b60405180910390fd5b600360009054906101000a900473ffffffffffffffffffffffffffffffffffffffff1673ffffffffffffffffffffffffffffffffffffffff1663feaf968c6040518163ffffffff1660e01b815260040160a06040518083038186803b158015610c3a57600080fd5b505afa158015610c4e573d6000803e3d6000fd5b505050506040513d601f19601f82011682018060405250810190610c7291906116f6565b945094509450945094509091929394565b60008060008060008060019050600060059050600060019050600060019050600060019050848484848499509950995099509950505050505091939590929450565b60008054906101000a900473ffffffffffffffffffffffffffffffffffffffff1673ffffffffffffffffffffffffffffffffffffffff163373ffffffffffffffffffffffffffffffffffffffff1614610d53576040517f08c379a0000000000000000000000000000000000000000000000000000000008152600401610d4a90611967565b60405180910390fd5b600360009054906101000a900473ffffffffffffffffffffffffffffffffffffffff1673ffffffffffffffffffffffffffffffffffffffff168173ffffffffffffffffffffffffffffffffffffffff1614610de3576040517f08c379a0000000000000000000000000000000000000000000000000000000008152600401610dda906119a7565b60405180910390fd5b600360006101000a81549073ffffffffffffffffffffffffffffffffffffffff0219169055610e1181611386565b50565b6000600160106040610e269190611b4b565b6002610e329190611bf4565b610e3c9190611d12565b821115610e4c5760009050610f6c565b600080610e58846114a6565b915091506000600460008461ffff1661ffff16815260200190815260200160002060009054906101000a900473ffffffffffffffffffffffffffffffffffffffff169050600073ffffffffffffffffffffffffffffffffffffffff168173ffffffffffffffffffffffffffffffffffffffff161415610edd5760009350505050610f6c565b8073ffffffffffffffffffffffffffffffffffffffff1663b5ab58dc836040518263ffffffff1660e01b8152600401610f1691906119fd565b60206040518083038186803b158015610f2e57600080fd5b505afa158015610f42573d6000803e3d6000fd5b505050506040513d601f19601f82011682018060405250810190610f6691906115e8565b93505050505b919050565b6000600160106040610f839190611b4b565b6002610f8f9190611bf4565b610f999190611d12565b821115610fa957600090506110c9565b600080610fb5846114a6565b915091506000600460008461ffff1661ffff16815260200190815260200160002060009054906101000a900473ffffffffffffffffffffffffffffffffffffffff169050600073ffffffffffffffffffffffffffffffffffffffff168173ffffffffffffffffffffffffffffffffffffffff16141561103a57600093505050506110c9565b8073ffffffffffffffffffffffffffffffffffffffff1663b633620c836040518263ffffffff1660e01b815260040161107391906119fd565b60206040518083038186803b15801561108b57600080fd5b505afa15801561109f573d6000803e3d6000fd5b505050506040513d601f19601f820116820180604052508101906110c391906116a4565b93505050505b919050565b60046020528060005260406000206000915054906101000a900473ffffffffffffffffffffffffffffffffffffffff1681565b600360009054906101000a900473ffffffffffffffffffffffffffffffffffffffff1681565b60008054906101000a900473ffffffffffffffffffffffffffffffffffffffff1673ffffffffffffffffffffffffffffffffffffffff163373ffffffffffffffffffffffffffffffffffffffff16146111b5576040517f08c379a00000000000000000000000000000000000000000000000000000000081526004016111ac90611967565b60405180910390fd5b80600160006101000a81548173ffffffffffffffffffffffffffffffffffffffff021916908373ffffffffffffffffffffffffffffffffffffffff1602179055508073ffffffffffffffffffffffffffffffffffffffff1660008054906101000a900473ffffffffffffffffffffffffffffffffffffffff1673ffffffffffffffffffffffffffffffffffffffff167fed8889f560326eb138920d842192f0eb3dd22b4f139c87a2c57538e05bae127860405160405180910390a350565b60008054906101000a900473ffffffffffffffffffffffffffffffffffffffff1673ffffffffffffffffffffffffffffffffffffffff163373ffffffffffffffffffffffffffffffffffffffff1614611301576040517f08c379a00000000000000000000000000000000000000000000000000000000081526004016112f890611967565b60405180910390fd5b80600360006101000a81548173ffffffffffffffffffffffffffffffffffffffff021916908373ffffffffffffffffffffffffffffffffffffffff16021790555050565b6000806000806000600160056001806001945094509450945094509091929394565b60008167ffffffffffffffff1660408461ffff16901b17905092915050565b60006001600260000160009054906101000a900461ffff166113a89190611b13565b905060405180604001604052808261ffff1681526020018373ffffffffffffffffffffffffffffffffffffffff16815250600260008201518160000160006101000a81548161ffff021916908361ffff16021790555060208201518160000160026101000a81548173ffffffffffffffffffffffffffffffffffffffff021916908373ffffffffffffffffffffffffffffffffffffffff16021790555090505081600460008361ffff1661ffff16815260200190815260200160002060006101000a81548173ffffffffffffffffffffffffffffffffffffffff021916908373ffffffffffffffffffffffffffffffffffffffff1602179055505050565b6000806000604084901c905060008490508181935093505050915091565b60006114d76114d284611ac6565b611aa1565b9050828152602081018484840111156114ef57600080fd5b6114fa848285611e19565b509392505050565b60008135905061151181611f9d565b92915050565b60008151905061152681611fb4565b92915050565b600082601f83011261153d57600080fd5b815161154d8482602086016114c4565b91505092915050565b60008135905061156581611fcb565b92915050565b60008135905061157a81611fe2565b92915050565b60008151905061158f81611fe2565b92915050565b6000813590506115a481611ff9565b92915050565b6000815190506115b981611ff9565b92915050565b6000602082840312156115d157600080fd5b60006115df84828501611502565b91505092915050565b6000602082840312156115fa57600080fd5b600061160884828501611517565b91505092915050565b60006020828403121561162357600080fd5b600082015167ffffffffffffffff81111561163d57600080fd5b6116498482850161152c565b91505092915050565b60006020828403121561166457600080fd5b600061167284828501611556565b91505092915050565b60006020828403121561168d57600080fd5b600061169b8482850161156b565b91505092915050565b6000602082840312156116b657600080fd5b60006116c484828501611580565b91505092915050565b6000602082840312156116df57600080fd5b60006116ed84828501611595565b91505092915050565b600080600080600060a0868803121561170e57600080fd5b600061171c888289016115aa565b955050602061172d88828901611517565b945050604061173e88828901611580565b935050606061174f88828901611580565b9250506080611760888289016115aa565b9150509295509295909350565b61177681611d58565b82525050565b61178581611d46565b82525050565b61179481611de3565b82525050565b6117a381611d6a565b82525050565b60006117b482611af7565b6117be8185611b02565b93506117ce818560208601611e19565b6117d781611edb565b840191505092915050565b60006117ef601683611b02565b91506117fa82611ef9565b602082019050919050565b6000611812601683611b02565b915061181d82611f22565b602082019050919050565b6000611835601e83611b02565b915061184082611f4b565b602082019050919050565b6000611858601b83611b02565b915061186382611f74565b602082019050919050565b61187781611d74565b82525050565b61188681611da2565b82525050565b61189581611e07565b82525050565b6118a481611dcd565b82525050565b6118b381611dc0565b82525050565b60006020820190506118ce600083018461177c565b92915050565b60006020820190506118e9600083018461176d565b92915050565b6000602082019050611904600083018461178b565b92915050565b600060208201905061191f600083018461179a565b92915050565b6000602082019050818103600083015261193f81846117a9565b905092915050565b60006020820190508181036000830152611960816117e2565b9050919050565b6000602082019050818103600083015261198081611805565b9050919050565b600060208201905081810360008301526119a081611828565b9050919050565b600060208201905081810360008301526119c08161184b565b9050919050565b60006020820190506119dc600083018461186e565b92915050565b60006020820190506119f7600083018461187d565b92915050565b6000602082019050611a12600083018461188c565b92915050565b6000602082019050611a2d600083018461189b565b92915050565b600060a082019050611a48600083018861189b565b611a55602083018761179a565b611a62604083018661187d565b611a6f606083018561187d565b611a7c608083018461189b565b9695505050505050565b6000602082019050611a9b60008301846118aa565b92915050565b6000611aab611abc565b9050611ab78282611e4c565b919050565b6000604051905090565b600067ffffffffffffffff821115611ae157611ae0611eac565b5b611aea82611edb565b9050602081019050919050565b600081519050919050565b600082825260208201905092915050565b6000611b1e82611d74565b9150611b2983611d74565b92508261ffff03821115611b4057611b3f611e7d565b5b828201905092915050565b6000611b5682611da2565b9150611b6183611da2565b9250827fffffffffffffffffffffffffffffffffffffffffffffffffffffffffffffffff03821115611b9657611b95611e7d565b5b828201905092915050565b6000808291508390505b6001851115611beb57808604811115611bc757611bc6611e7d565b5b6001851615611bd65780820291505b8081029050611be485611eec565b9450611bab565b94509492505050565b6000611bff82611da2565b9150611c0a83611da2565b9250611c377fffffffffffffffffffffffffffffffffffffffffffffffffffffffffffffffff8484611c3f565b905092915050565b600082611c4f5760019050611d0b565b81611c5d5760009050611d0b565b8160018114611c735760028114611c7d57611cac565b6001915050611d0b565b60ff841115611c8f57611c8e611e7d565b5b8360020a915084821115611ca657611ca5611e7d565b5b50611d0b565b5060208310610133831016604e8410600b8410161715611ce15782820a905083811115611cdc57611cdb611e7d565b5b611d0b565b611cee8484846001611ba1565b92509050818404811115611d0557611d04611e7d565b5b81810290505b9392505050565b6000611d1d82611da2565b9150611d2883611da2565b925082821015611d3b57611d3a611e7d565b5b828203905092915050565b6000611d5182611d82565b9050919050565b6000611d6382611d82565b9050919050565b6000819050919050565b600061ffff82169050919050565b600073ffffffffffffffffffffffffffffffffffffffff82169050919050565b6000819050919050565b600067ffffffffffffffff82169050919050565b600060ff82169050919050565b600069ffffffffffffffffffff82169050919050565b6000611dee82611df5565b9050919050565b6000611e0082611d82565b9050919050565b6000611e1282611dac565b9050919050565b60005b83811015611e37578082015181840152602081019050611e1c565b83811115611e46576000848401525b50505050565b611e5582611edb565b810181811067ffffffffffffffff82111715611e7457611e73611eac565b5b80604052505050565b7f4e487b7100000000000000000000000000000000000000000000000000000000600052601160045260246000fd5b7f4e487b7100000000000000000000000000000000000000000000000000000000600052604160045260246000fd5b6000601f19601f8301169050919050565b60008160011c9050919050565b7f4d7573742062652070726f706f736564206f776e657200000000000000000000600082015250565b7f4f6e6c792063616c6c61626c65206279206f776e657200000000000000000000600082015250565b7f4e6f2070726f706f7365642061676772656761746f722070726573656e740000600082015250565b7f496e76616c69642070726f706f7365642061676772656761746f720000000000600082015250565b611fa681611d46565b8114611fb157600080fd5b50565b611fbd81611d6a565b8114611fc857600080fd5b50565b611fd481611d74565b8114611fdf57600080fd5b50565b611feb81611da2565b8114611ff657600080fd5b50565b61200281611dcd565b811461200d57600080fd5b5056fea264697066735822122002c324ccb357dc7b46c078e15cf8992f9c9d970da2eaf1240f750e3f47c1a1c764736f6c63430008040033",
  "linkReferences": {},
  "deployedLinkReferences": {}
}