{
  "_format": "hh-sol-artifact-1",
  "contractName": "EACAggregatorProxy",
  "sourceName": "contracts/oracleUSDC.sol",
  "abi": [
    {
      "inputs": [
        {
          "internalType": "address",
          "name": "_aggregator",
          "type": "address"
        },
        {
          "internalType": "address",
          "name": "_accessController",
          "type": "address"
        }
      ],
      "stateMutability": "nonpayable",
      "type": "constructor"
    },
    {
      "anonymous": false,
      "inputs": [
        {
          "indexed": true,
          "internalType": "int256",
          "name": "current",
          "type": "int256"
        },
        {
          "indexed": true,
          "internalType": "uint256",
          "name": "roundId",
          "type": "uint256"
        },
        {
          "indexed": false,
          "internalType": "uint256",
          "name": "updatedAt",
          "type": "uint256"
        }
      ],
      "name": "AnswerUpdated",
      "type": "event"
    },
    {
      "anonymous": false,
      "inputs": [
        {
          "indexed": true,
          "internalType": "uint256",
          "name": "roundId",
          "type": "uint256"
        },
        {
          "indexed": true,
          "internalType": "address",
          "name": "startedBy",
          "type": "address"
        },
        {
          "indexed": false,
          "internalType": "uint256",
          "name": "startedAt",
          "type": "uint256"
        }
      ],
      "name": "NewRound",
      "type": "event"
    },
    {
      "anonymous": false,
      "inputs": [
        {
          "indexed": true,
          "internalType": "address",
          "name": "from",
          "type": "address"
        },
        {
          "indexed": true,
          "internalType": "address",
          "name": "to",
          "type": "address"
        }
      ],
      "name": "OwnershipTransferRequested",
      "type": "event"
    },
    {
      "anonymous": false,
      "inputs": [
        {
          "indexed": true,
          "internalType": "address",
          "name": "from",
          "type": "address"
        },
        {
          "indexed": true,
          "internalType": "address",
          "name": "to",
          "type": "address"
        }
      ],
      "name": "OwnershipTransferred",
      "type": "event"
    },
    {
      "inputs": [],
      "name": "acceptOwnership",
      "outputs": [],
      "stateMutability": "nonpayable",
      "type": "function"
    },
    {
      "inputs": [],
      "name": "accessController",
      "outputs": [
        {
          "internalType": "contract AccessControllerInterface",
          "name": "",
          "type": "address"
        }
      ],
      "stateMutability": "view",
      "type": "function"
    },
    {
      "inputs": [],
      "name": "aggregator",
      "outputs": [
        {
          "internalType": "address",
          "name": "",
          "type": "address"
        }
      ],
      "stateMutability": "view",
      "type": "function"
    },
    {
      "inputs": [
        {
          "internalType": "address",
          "name": "_aggregator",
          "type": "address"
        }
      ],
      "name": "confirmAggregator",
      "outputs": [],
      "stateMutability": "nonpayable",
      "type": "function"
    },
    {
      "inputs": [],
      "name": "decimals",
      "outputs": [
        {
          "internalType": "uint8",
          "name": "",
          "type": "uint8"
        }
      ],
      "stateMutability": "view",
      "type": "function"
    },
    {
      "inputs": [],
      "name": "description",
      "outputs": [
        {
          "internalType": "string",
          "name": "",
          "type": "string"
        }
      ],
      "stateMutability": "view",
      "type": "function"
    },
    {
      "inputs": [
        {
          "internalType": "uint256",
          "name": "_roundId",
          "type": "uint256"
        }
      ],
      "name": "getAnswer",
      "outputs": [
        {
          "internalType": "int256",
          "name": "",
          "type": "int256"
        }
      ],
      "stateMutability": "view",
      "type": "function"
    },
    {
      "inputs": [
        {
          "internalType": "uint80",
          "name": "_roundId",
          "type": "uint80"
        }
      ],
      "name": "getRoundData",
      "outputs": [
        {
          "internalType": "uint80",
          "name": "roundId",
          "type": "uint80"
        },
        {
          "internalType": "int256",
          "name": "answer",
          "type": "int256"
        },
        {
          "internalType": "uint256",
          "name": "startedAt",
          "type": "uint256"
        },
        {
          "internalType": "uint256",
          "name": "updatedAt",
          "type": "uint256"
        },
        {
          "internalType": "uint80",
          "name": "answeredInRound",
          "type": "uint80"
        }
      ],
      "stateMutability": "view",
      "type": "function"
    },
    {
      "inputs": [
        {
          "internalType": "uint256",
          "name": "_roundId",
          "type": "uint256"
        }
      ],
      "name": "getTimestamp",
      "outputs": [
        {
          "internalType": "uint256",
          "name": "",
          "type": "uint256"
        }
      ],
      "stateMutability": "view",
      "type": "function"
    },
    {
      "inputs": [],
      "name": "latestAnswer",
      "outputs": [
        {
          "internalType": "int256",
          "name": "",
          "type": "int256"
        }
      ],
      "stateMutability": "view",
      "type": "function"
    },
    {
      "inputs": [],
      "name": "latestRound",
      "outputs": [
        {
          "internalType": "uint256",
          "name": "",
          "type": "uint256"
        }
      ],
      "stateMutability": "view",
      "type": "function"
    },
    {
      "inputs": [],
      "name": "latestRoundData",
      "outputs": [
        {
          "internalType": "uint80",
          "name": "roundId",
          "type": "uint80"
        },
        {
          "internalType": "int256",
          "name": "answer",
          "type": "int256"
        },
        {
          "internalType": "uint256",
          "name": "startedAt",
          "type": "uint256"
        },
        {
          "internalType": "uint256",
          "name": "updatedAt",
          "type": "uint256"
        },
        {
          "internalType": "uint80",
          "name": "answeredInRound",
          "type": "uint80"
        }
      ],
      "stateMutability": "view",
      "type": "function"
    },
    {
      "inputs": [],
      "name": "latestTimestamp",
      "outputs": [
        {
          "internalType": "uint256",
          "name": "",
          "type": "uint256"
        }
      ],
      "stateMutability": "view",
      "type": "function"
    },
    {
      "inputs": [],
      "name": "owner",
      "outputs": [
        {
          "internalType": "address payable",
          "name": "",
          "type": "address"
        }
      ],
      "stateMutability": "view",
      "type": "function"
    },
    {
      "inputs": [
        {
          "internalType": "uint16",
          "name": "",
          "type": "uint16"
        }
      ],
      "name": "phaseAggregators",
      "outputs": [
        {
          "internalType": "contract AggregatorV2V3Interface",
          "name": "",
          "type": "address"
        }
      ],
      "stateMutability": "view",
      "type": "function"
    },
    {
      "inputs": [],
      "name": "phaseId",
      "outputs": [
        {
          "internalType": "uint16",
          "name": "",
          "type": "uint16"
        }
      ],
      "stateMutability": "view",
      "type": "function"
    },
    {
      "inputs": [
        {
          "internalType": "address",
          "name": "_aggregator",
          "type": "address"
        }
      ],
      "name": "proposeAggregator",
      "outputs": [],
      "stateMutability": "nonpayable",
      "type": "function"
    },
    {
      "inputs": [],
      "name": "proposedAggregator",
      "outputs": [
        {
          "internalType": "contract AggregatorV2V3Interface",
          "name": "",
          "type": "address"
        }
      ],
      "stateMutability": "view",
      "type": "function"
    },
    {
      "inputs": [
        {
          "internalType": "uint80",
          "name": "_roundId",
          "type": "uint80"
        }
      ],
      "name": "proposedGetRoundData",
      "outputs": [
        {
          "internalType": "uint80",
          "name": "roundId",
          "type": "uint80"
        },
        {
          "internalType": "int256",
          "name": "answer",
          "type": "int256"
        },
        {
          "internalType": "uint256",
          "name": "startedAt",
          "type": "uint256"
        },
        {
          "internalType": "uint256",
          "name": "updatedAt",
          "type": "uint256"
        },
        {
          "internalType": "uint80",
          "name": "answeredInRound",
          "type": "uint80"
        }
      ],
      "stateMutability": "view",
      "type": "function"
    },
    {
      "inputs": [],
      "name": "proposedLatestRoundData",
      "outputs": [
        {
          "internalType": "uint80",
          "name": "roundId",
          "type": "uint80"
        },
        {
          "internalType": "int256",
          "name": "answer",
          "type": "int256"
        },
        {
          "internalType": "uint256",
          "name": "startedAt",
          "type": "uint256"
        },
        {
          "internalType": "uint256",
          "name": "updatedAt",
          "type": "uint256"
        },
        {
          "internalType": "uint80",
          "name": "answeredInRound",
          "type": "uint80"
        }
      ],
      "stateMutability": "view",
      "type": "function"
    },
    {
      "inputs": [
        {
          "internalType": "address",
          "name": "_accessController",
          "type": "address"
        }
      ],
      "name": "setController",
      "outputs": [],
      "stateMutability": "nonpayable",
      "type": "function"
    },
    {
      "inputs": [
        {
          "internalType": "address",
          "name": "_to",
          "type": "address"
        }
      ],
      "name": "transferOwnership",
      "outputs": [],
      "stateMutability": "nonpayable",
      "type": "function"
    },
    {
      "inputs": [],
      "name": "version",
      "outputs": [
        {
          "internalType": "uint256",
          "name": "",
          "type": "uint256"
        }
      ],
      "stateMutability": "view",
      "type": "function"
    }
  ],
  "bytecode": "0x60806040523480156200001157600080fd5b50604051620033f9380380620033f98339818101604052810190620000379190620002b1565b81336000806101000a81548173ffffffffffffffffffffffffffffffffffffffff021916908373ffffffffffffffffffffffffffffffffffffffff1602179055506200008981620000a360201b60201c565b506200009b81620001c560201b60201c565b50506200043f565b60006001600260000160009054906101000a900461ffff16620000c791906200034c565b905060405180604001604052808261ffff1681526020018373ffffffffffffffffffffffffffffffffffffffff16815250600260008201518160000160006101000a81548161ffff021916908361ffff16021790555060208201518160000160026101000a81548173ffffffffffffffffffffffffffffffffffffffff021916908373ffffffffffffffffffffffffffffffffffffffff16021790555090505081600460008361ffff1661ffff16815260200190815260200160002060006101000a81548173ffffffffffffffffffffffffffffffffffffffff021916908373ffffffffffffffffffffffffffffffffffffffff1602179055505050565b60008054906101000a900473ffffffffffffffffffffffffffffffffffffffff1673ffffffffffffffffffffffffffffffffffffffff163373ffffffffffffffffffffffffffffffffffffffff161462000256576040517f08c379a00000000000000000000000000000000000000000000000000000000081526004016200024d9062000319565b60405180910390fd5b80600560006101000a81548173ffffffffffffffffffffffffffffffffffffffff021916908373ffffffffffffffffffffffffffffffffffffffff16021790555050565b600081519050620002ab8162000425565b92915050565b60008060408385031215620002c557600080fd5b6000620002d5858286016200029a565b9250506020620002e8858286016200029a565b9150509250929050565b6000620003016016836200033b565b91506200030e82620003fc565b602082019050919050565b600060208201905081810360008301526200033481620002f2565b9050919050565b600082825260208201905092915050565b600062000359826200039f565b915062000366836200039f565b92508261ffff0382111562000380576200037f620003cd565b5b828201905092915050565b60006200039882620003ad565b9050919050565b600061ffff82169050919050565b600073ffffffffffffffffffffffffffffffffffffffff82169050919050565b7f4e487b7100000000000000000000000000000000000000000000000000000000600052601160045260246000fd5b7f4f6e6c792063616c6c61626c65206279206f776e657200000000000000000000600082015250565b62000430816200038b565b81146200043c57600080fd5b50565b612faa806200044f6000396000f3fe608060405234801561001057600080fd5b506004361061014d5760003560e01c80638f6b4d91116100c3578063bc43cbaf1161007c578063bc43cbaf1461038c578063c1597304146103aa578063e8c4be30146103da578063f2fde38b146103f8578063f8a2abd314610414578063feaf968c146104305761014d565b80638f6b4d911461029e57806392eefe9b146102c05780639a6fc8f5146102dc578063a928c09614610310578063b5ab58dc1461032c578063b633620c1461035c5761014d565b80636001ac53116101155780636001ac53146101e8578063668a0f021461021c5780637284e4161461023a57806379ba5097146102585780638205bf6a146102625780638da5cb5b146102805761014d565b8063245a7bfc14610152578063313ce5671461017057806350d25bcd1461018e57806354fd4d50146101ac57806358303b10146101ca575b600080fd5b61015a610452565b6040516101679190612720565b60405180910390f35b61017861047f565b604051610185919061295a565b60405180910390f35b610196610488565b6040516101a391906127be565b60405180910390f35b6101b46105c2565b6040516101c191906128b6565b60405180910390f35b6101d261066c565b6040516101df919061289b565b60405180910390f35b61020260048036038101906101fd91906124d5565b610687565b604051610213959493929190612907565b60405180910390f35b610224610868565b60405161023191906128b6565b60405180910390f35b6102426109a2565b60405161024f91906127d9565b60405180910390f35b610260610a51565b005b61026a610be6565b60405161027791906128b6565b60405180910390f35b610288610d20565b604051610295919061273b565b60405180910390f35b6102a6610d44565b6040516102b7959493929190612907565b60405180910390f35b6102da60048036038101906102d5919061239e565b610f22565b005b6102f660048036038101906102f191906124d5565b610ff4565b604051610307959493929190612907565b60405180910390f35b61032a6004803603810190610325919061239e565b611143565b005b61034660048036038101906103419190612483565b611292565b60405161035391906127be565b60405180910390f35b61037660048036038101906103719190612483565b6113cf565b60405161038391906128b6565b60405180910390f35b61039461150c565b6040516103a19190612788565b60405180910390f35b6103c460048036038101906103bf919061245a565b611532565b6040516103d191906127a3565b60405180910390f35b6103e2611565565b6040516103ef91906127a3565b60405180910390f35b610412600480360381019061040d919061239e565b61158b565b005b61042e6004803603810190610429919061239e565b6116d7565b005b6104386117a9565b604051610449959493929190612907565b60405180910390f35b6000600260000160029054906101000a900473ffffffffffffffffffffffffffffffffffffffff16905090565b60006008905090565b600080600560009054906101000a900473ffffffffffffffffffffffffffffffffffffffff169050600073ffffffffffffffffffffffffffffffffffffffff168173ffffffffffffffffffffffffffffffffffffffff16148061057557508073ffffffffffffffffffffffffffffffffffffffff16636b14daf8336000366040518463ffffffff1660e01b815260040161052493929190612756565b60206040518083038186803b15801561053c57600080fd5b505afa158015610550573d6000803e3d6000fd5b505050506040513d601f19601f8201168201806040525081019061057491906123c7565b5b6105b4576040517f08c379a00000000000000000000000000000000000000000000000000000000081526004016105ab9061285b565b60405180910390fd5b6105bc6118f5565b91505090565b6000600260000160029054906101000a900473ffffffffffffffffffffffffffffffffffffffff1673ffffffffffffffffffffffffffffffffffffffff166354fd4d506040518163ffffffff1660e01b815260040160206040518083038186803b15801561062f57600080fd5b505afa158015610643573d6000803e3d6000fd5b505050506040513d601f19601f8201168201806040525081019061066791906124ac565b905090565b6000600260000160009054906101000a900461ffff16905090565b600080600080600080600560009054906101000a900473ffffffffffffffffffffffffffffffffffffffff169050600073ffffffffffffffffffffffffffffffffffffffff168173ffffffffffffffffffffffffffffffffffffffff16148061077a57508073ffffffffffffffffffffffffffffffffffffffff16636b14daf8336000366040518463ffffffff1660e01b815260040161072993929190612756565b60206040518083038186803b15801561074157600080fd5b505afa158015610755573d6000803e3d6000fd5b505050506040513d601f19601f8201168201806040525081019061077991906123c7565b5b6107b9576040517f08c379a00000000000000000000000000000000000000000000000000000000081526004016107b09061285b565b60405180910390fd5b600073ffffffffffffffffffffffffffffffffffffffff16600360009054906101000a900473ffffffffffffffffffffffffffffffffffffffff1673ffffffffffffffffffffffffffffffffffffffff16141561084b576040517f08c379a00000000000000000000000000000000000000000000000000000000081526004016108429061283b565b60405180910390fd5b6108548761199f565b955095509550955095505091939590929450565b600080600560009054906101000a900473ffffffffffffffffffffffffffffffffffffffff169050600073ffffffffffffffffffffffffffffffffffffffff168173ffffffffffffffffffffffffffffffffffffffff16148061095557508073ffffffffffffffffffffffffffffffffffffffff16636b14daf8336000366040518463ffffffff1660e01b815260040161090493929190612756565b60206040518083038186803b15801561091c57600080fd5b505afa158015610930573d6000803e3d6000fd5b505050506040513d601f19601f8201168201806040525081019061095491906123c7565b5b610994576040517f08c379a000000000000000000000000000000000000000000000000000000000815260040161098b9061285b565b60405180910390fd5b61099c611af6565b91505090565b6060600260000160029054906101000a900473ffffffffffffffffffffffffffffffffffffffff1673ffffffffffffffffffffffffffffffffffffffff16637284e4166040518163ffffffff1660e01b815260040160006040518083038186803b158015610a0f57600080fd5b505afa158015610a23573d6000803e3d6000fd5b505050506040513d6000823e3d601f19601f82011682018060405250810190610a4c9190612419565b905090565b600160009054906101000a900473ffffffffffffffffffffffffffffffffffffffff1673ffffffffffffffffffffffffffffffffffffffff163373ffffffffffffffffffffffffffffffffffffffff1614610ae1576040517f08c379a0000000000000000000000000000000000000000000000000000000008152600401610ad8906127fb565b60405180910390fd5b60008060009054906101000a900473ffffffffffffffffffffffffffffffffffffffff169050336000806101000a81548173ffffffffffffffffffffffffffffffffffffffff021916908373ffffffffffffffffffffffffffffffffffffffff1602179055506000600160006101000a81548173ffffffffffffffffffffffffffffffffffffffff021916908373ffffffffffffffffffffffffffffffffffffffff1602179055503373ffffffffffffffffffffffffffffffffffffffff168173ffffffffffffffffffffffffffffffffffffffff167f8be0079c531659141344cd1fd0a4f28419497f9722a3daafe3b4186f6b6457e060405160405180910390a350565b600080600560009054906101000a900473ffffffffffffffffffffffffffffffffffffffff169050600073ffffffffffffffffffffffffffffffffffffffff168173ffffffffffffffffffffffffffffffffffffffff161480610cd357508073ffffffffffffffffffffffffffffffffffffffff16636b14daf8336000366040518463ffffffff1660e01b8152600401610c8293929190612756565b60206040518083038186803b158015610c9a57600080fd5b505afa158015610cae573d6000803e3d6000fd5b505050506040513d601f19601f82011682018060405250810190610cd291906123c7565b5b610d12576040517f08c379a0000000000000000000000000000000000000000000000000000000008152600401610d099061285b565b60405180910390fd5b610d1a611c1f565b91505090565b60008054906101000a900473ffffffffffffffffffffffffffffffffffffffff1681565b600080600080600080600560009054906101000a900473ffffffffffffffffffffffffffffffffffffffff169050600073ffffffffffffffffffffffffffffffffffffffff168173ffffffffffffffffffffffffffffffffffffffff161480610e3757508073ffffffffffffffffffffffffffffffffffffffff16636b14daf8336000366040518463ffffffff1660e01b8152600401610de693929190612756565b60206040518083038186803b158015610dfe57600080fd5b505afa158015610e12573d6000803e3d6000fd5b505050506040513d601f19601f82011682018060405250810190610e3691906123c7565b5b610e76576040517f08c379a0000000000000000000000000000000000000000000000000000000008152600401610e6d9061285b565b60405180910390fd5b600073ffffffffffffffffffffffffffffffffffffffff16600360009054906101000a900473ffffffffffffffffffffffffffffffffffffffff1673ffffffffffffffffffffffffffffffffffffffff161415610f08576040517f08c379a0000000000000000000000000000000000000000000000000000000008152600401610eff9061283b565b60405180910390fd5b610f10611cc9565b95509550955095509550509091929394565b60008054906101000a900473ffffffffffffffffffffffffffffffffffffffff1673ffffffffffffffffffffffffffffffffffffffff163373ffffffffffffffffffffffffffffffffffffffff1614610fb0576040517f08c379a0000000000000000000000000000000000000000000000000000000008152600401610fa79061281b565b60405180910390fd5b80600560006101000a81548173ffffffffffffffffffffffffffffffffffffffff021916908373ffffffffffffffffffffffffffffffffffffffff16021790555050565b600080600080600080600560009054906101000a900473ffffffffffffffffffffffffffffffffffffffff169050600073ffffffffffffffffffffffffffffffffffffffff168173ffffffffffffffffffffffffffffffffffffffff1614806110e757508073ffffffffffffffffffffffffffffffffffffffff16636b14daf8336000366040518463ffffffff1660e01b815260040161109693929190612756565b60206040518083038186803b1580156110ae57600080fd5b505afa1580156110c2573d6000803e3d6000fd5b505050506040513d601f19601f820116820180604052508101906110e691906123c7565b5b611126576040517f08c379a000000000000000000000000000000000000000000000000000000000815260040161111d9061285b565b60405180910390fd5b61112f87611e13565b955095509550955095505091939590929450565b60008054906101000a900473ffffffffffffffffffffffffffffffffffffffff1673ffffffffffffffffffffffffffffffffffffffff163373ffffffffffffffffffffffffffffffffffffffff16146111d1576040517f08c379a00000000000000000000000000000000000000000000000000000000081526004016111c89061281b565b60405180910390fd5b600360009054906101000a900473ffffffffffffffffffffffffffffffffffffffff1673ffffffffffffffffffffffffffffffffffffffff168173ffffffffffffffffffffffffffffffffffffffff1614611261576040517f08c379a00000000000000000000000000000000000000000000000000000000081526004016112589061287b565b60405180910390fd5b600360006101000a81549073ffffffffffffffffffffffffffffffffffffffff021916905561128f81611e55565b50565b600080600560009054906101000a900473ffffffffffffffffffffffffffffffffffffffff169050600073ffffffffffffffffffffffffffffffffffffffff168173ffffffffffffffffffffffffffffffffffffffff16148061137f57508073ffffffffffffffffffffffffffffffffffffffff16636b14daf8336000366040518463ffffffff1660e01b815260040161132e93929190612756565b60206040518083038186803b15801561134657600080fd5b505afa15801561135a573d6000803e3d6000fd5b505050506040513d601f19601f8201168201806040525081019061137e91906123c7565b5b6113be576040517f08c379a00000000000000000000000000000000000000000000000000000000081526004016113b59061285b565b60405180910390fd5b6113c783611f75565b915050919050565b600080600560009054906101000a900473ffffffffffffffffffffffffffffffffffffffff169050600073ffffffffffffffffffffffffffffffffffffffff168173ffffffffffffffffffffffffffffffffffffffff1614806114bc57508073ffffffffffffffffffffffffffffffffffffffff16636b14daf8336000366040518463ffffffff1660e01b815260040161146b93929190612756565b60206040518083038186803b15801561148357600080fd5b505afa158015611497573d6000803e3d6000fd5b505050506040513d601f19601f820116820180604052508101906114bb91906123c7565b5b6114fb576040517f08c379a00000000000000000000000000000000000000000000000000000000081526004016114f29061285b565b60405180910390fd5b611504836120d2565b915050919050565b600560009054906101000a900473ffffffffffffffffffffffffffffffffffffffff1681565b60046020528060005260406000206000915054906101000a900473ffffffffffffffffffffffffffffffffffffffff1681565b600360009054906101000a900473ffffffffffffffffffffffffffffffffffffffff1681565b60008054906101000a900473ffffffffffffffffffffffffffffffffffffffff1673ffffffffffffffffffffffffffffffffffffffff163373ffffffffffffffffffffffffffffffffffffffff1614611619576040517f08c379a00000000000000000000000000000000000000000000000000000000081526004016116109061281b565b60405180910390fd5b80600160006101000a81548173ffffffffffffffffffffffffffffffffffffffff021916908373ffffffffffffffffffffffffffffffffffffffff1602179055508073ffffffffffffffffffffffffffffffffffffffff1660008054906101000a900473ffffffffffffffffffffffffffffffffffffffff1673ffffffffffffffffffffffffffffffffffffffff167fed8889f560326eb138920d842192f0eb3dd22b4f139c87a2c57538e05bae127860405160405180910390a350565b60008054906101000a900473ffffffffffffffffffffffffffffffffffffffff1673ffffffffffffffffffffffffffffffffffffffff163373ffffffffffffffffffffffffffffffffffffffff1614611765576040517f08c379a000000000000000000000000000000000000000000000000000000000815260040161175c9061281b565b60405180910390fd5b80600360006101000a81548173ffffffffffffffffffffffffffffffffffffffff021916908373ffffffffffffffffffffffffffffffffffffffff16021790555050565b600080600080600080600560009054906101000a900473ffffffffffffffffffffffffffffffffffffffff169050600073ffffffffffffffffffffffffffffffffffffffff168173ffffffffffffffffffffffffffffffffffffffff16148061189c57508073ffffffffffffffffffffffffffffffffffffffff16636b14daf8336000366040518463ffffffff1660e01b815260040161184b93929190612756565b60206040518083038186803b15801561186357600080fd5b505afa158015611877573d6000803e3d6000fd5b505050506040513d601f19601f8201168201806040525081019061189b91906123c7565b5b6118db576040517f08c379a00000000000000000000000000000000000000000000000000000000081526004016118d29061285b565b60405180910390fd5b6118e361222f565b95509550955095509550509091929394565b6000600260000160029054906101000a900473ffffffffffffffffffffffffffffffffffffffff1673ffffffffffffffffffffffffffffffffffffffff166350d25bcd6040518163ffffffff1660e01b815260040160206040518083038186803b15801561196257600080fd5b505afa158015611976573d6000803e3d6000fd5b505050506040513d601f19601f8201168201806040525081019061199a91906123f0565b905090565b60008060008060008073ffffffffffffffffffffffffffffffffffffffff16600360009054906101000a900473ffffffffffffffffffffffffffffffffffffffff1673ffffffffffffffffffffffffffffffffffffffff161415611a38576040517f08c379a0000000000000000000000000000000000000000000000000000000008152600401611a2f9061283b565b60405180910390fd5b600360009054906101000a900473ffffffffffffffffffffffffffffffffffffffff1673ffffffffffffffffffffffffffffffffffffffff16639a6fc8f5876040518263ffffffff1660e01b8152600401611a9391906128ec565b60a06040518083038186803b158015611aab57600080fd5b505afa158015611abf573d6000803e3d6000fd5b505050506040513d601f19601f82011682018060405250810190611ae391906124fe565b9450945094509450945091939590929450565b60008060026040518060400160405290816000820160009054906101000a900461ffff1661ffff1661ffff1681526020016000820160029054906101000a900473ffffffffffffffffffffffffffffffffffffffff1673ffffffffffffffffffffffffffffffffffffffff1673ffffffffffffffffffffffffffffffffffffffff16815250509050611c0d8160000151826020015173ffffffffffffffffffffffffffffffffffffffff1663668a0f026040518163ffffffff1660e01b815260040160206040518083038186803b158015611bd057600080fd5b505afa158015611be4573d6000803e3d6000fd5b505050506040513d601f19601f82011682018060405250810190611c0891906124ac565b612251565b69ffffffffffffffffffff1691505090565b6000600260000160029054906101000a900473ffffffffffffffffffffffffffffffffffffffff1673ffffffffffffffffffffffffffffffffffffffff16638205bf6a6040518163ffffffff1660e01b815260040160206040518083038186803b158015611c8c57600080fd5b505afa158015611ca0573d6000803e3d6000fd5b505050506040513d601f19601f82011682018060405250810190611cc491906124ac565b905090565b60008060008060008073ffffffffffffffffffffffffffffffffffffffff16600360009054906101000a900473ffffffffffffffffffffffffffffffffffffffff1673ffffffffffffffffffffffffffffffffffffffff161415611d62576040517f08c379a0000000000000000000000000000000000000000000000000000000008152600401611d599061283b565b60405180910390fd5b600360009054906101000a900473ffffffffffffffffffffffffffffffffffffffff1673ffffffffffffffffffffffffffffffffffffffff1663feaf968c6040518163ffffffff1660e01b815260040160a06040518083038186803b158015611dca57600080fd5b505afa158015611dde573d6000803e3d6000fd5b505050506040513d601f19601f82011682018060405250810190611e0291906124fe565b945094509450945094509091929394565b60008060008060008060019050600060059050600060019050600060019050600060019050848484848499509950995099509950505050505091939590929450565b60006001600260000160009054906101000a900461ffff16611e7791906129f8565b905060405180604001604052808261ffff1681526020018373ffffffffffffffffffffffffffffffffffffffff16815250600260008201518160000160006101000a81548161ffff021916908361ffff16021790555060208201518160000160026101000a81548173ffffffffffffffffffffffffffffffffffffffff021916908373ffffffffffffffffffffffffffffffffffffffff16021790555090505081600460008361ffff1661ffff16815260200190815260200160002060006101000a81548173ffffffffffffffffffffffffffffffffffffffff021916908373ffffffffffffffffffffffffffffffffffffffff1602179055505050565b6000600160106040611f879190612a30565b6002611f939190612ad9565b611f9d9190612bf7565b821115611fad57600090506120cd565b600080611fb984612270565b915091506000600460008461ffff1661ffff16815260200190815260200160002060009054906101000a900473ffffffffffffffffffffffffffffffffffffffff169050600073ffffffffffffffffffffffffffffffffffffffff168173ffffffffffffffffffffffffffffffffffffffff16141561203e57600093505050506120cd565b8073ffffffffffffffffffffffffffffffffffffffff1663b5ab58dc836040518263ffffffff1660e01b815260040161207791906128d1565b60206040518083038186803b15801561208f57600080fd5b505afa1580156120a3573d6000803e3d6000fd5b505050506040513d601f19601f820116820180604052508101906120c791906123f0565b93505050505b919050565b60006001601060406120e49190612a30565b60026120f09190612ad9565b6120fa9190612bf7565b82111561210a576000905061222a565b60008061211684612270565b915091506000600460008461ffff1661ffff16815260200190815260200160002060009054906101000a900473ffffffffffffffffffffffffffffffffffffffff169050600073ffffffffffffffffffffffffffffffffffffffff168173ffffffffffffffffffffffffffffffffffffffff16141561219b576000935050505061222a565b8073ffffffffffffffffffffffffffffffffffffffff1663b633620c836040518263ffffffff1660e01b81526004016121d491906128d1565b60206040518083038186803b1580156121ec57600080fd5b505afa158015612200573d6000803e3d6000fd5b505050506040513d601f19601f8201168201806040525081019061222491906124ac565b93505050505b919050565b6000806000806000600160056001806001945094509450945094509091929394565b60008167ffffffffffffffff1660408461ffff16901b17905092915050565b6000806000604084901c905060008490508181935093505050915091565b60006122a161229c8461299a565b612975565b9050828152602081018484840111156122b957600080fd5b6122c4848285612d3d565b509392505050565b6000813590506122db81612eea565b92915050565b6000815190506122f081612f01565b92915050565b60008151905061230581612f18565b92915050565b600082601f83011261231c57600080fd5b815161232c84826020860161228e565b91505092915050565b60008135905061234481612f2f565b92915050565b60008135905061235981612f46565b92915050565b60008151905061236e81612f46565b92915050565b60008135905061238381612f5d565b92915050565b60008151905061239881612f5d565b92915050565b6000602082840312156123b057600080fd5b60006123be848285016122cc565b91505092915050565b6000602082840312156123d957600080fd5b60006123e7848285016122e1565b91505092915050565b60006020828403121561240257600080fd5b6000612410848285016122f6565b91505092915050565b60006020828403121561242b57600080fd5b600082015167ffffffffffffffff81111561244557600080fd5b6124518482850161230b565b91505092915050565b60006020828403121561246c57600080fd5b600061247a84828501612335565b91505092915050565b60006020828403121561249557600080fd5b60006124a38482850161234a565b91505092915050565b6000602082840312156124be57600080fd5b60006124cc8482850161235f565b91505092915050565b6000602082840312156124e757600080fd5b60006124f584828501612374565b91505092915050565b600080600080600060a0868803121561251657600080fd5b600061252488828901612389565b9550506020612535888289016122f6565b94505060406125468882890161235f565b93505060606125578882890161235f565b925050608061256888828901612389565b9150509295509295909350565b61257e81612c3d565b82525050565b61258d81612c2b565b82525050565b600061259f83856129d6565b93506125ac838584612d2e565b6125b583612dff565b840190509392505050565b6125c981612cd4565b82525050565b6125d881612cf8565b82525050565b6125e781612c5b565b82525050565b60006125f8826129cb565b61260281856129e7565b9350612612818560208601612d3d565b61261b81612dff565b840191505092915050565b60006126336016836129e7565b915061263e82612e1d565b602082019050919050565b60006126566016836129e7565b915061266182612e46565b602082019050919050565b6000612679601e836129e7565b915061268482612e6f565b602082019050919050565b600061269c6009836129e7565b91506126a782612e98565b602082019050919050565b60006126bf601b836129e7565b91506126ca82612ec1565b602082019050919050565b6126de81612c65565b82525050565b6126ed81612c93565b82525050565b6126fc81612d1c565b82525050565b61270b81612cbe565b82525050565b61271a81612cb1565b82525050565b60006020820190506127356000830184612584565b92915050565b60006020820190506127506000830184612575565b92915050565b600060408201905061276b6000830186612584565b818103602083015261277e818486612593565b9050949350505050565b600060208201905061279d60008301846125c0565b92915050565b60006020820190506127b860008301846125cf565b92915050565b60006020820190506127d360008301846125de565b92915050565b600060208201905081810360008301526127f381846125ed565b905092915050565b6000602082019050818103600083015261281481612626565b9050919050565b6000602082019050818103600083015261283481612649565b9050919050565b600060208201905081810360008301526128548161266c565b9050919050565b600060208201905081810360008301526128748161268f565b9050919050565b60006020820190508181036000830152612894816126b2565b9050919050565b60006020820190506128b060008301846126d5565b92915050565b60006020820190506128cb60008301846126e4565b92915050565b60006020820190506128e660008301846126f3565b92915050565b60006020820190506129016000830184612702565b92915050565b600060a08201905061291c6000830188612702565b61292960208301876125de565b61293660408301866126e4565b61294360608301856126e4565b6129506080830184612702565b9695505050505050565b600060208201905061296f6000830184612711565b92915050565b600061297f612990565b905061298b8282612d70565b919050565b6000604051905090565b600067ffffffffffffffff8211156129b5576129b4612dd0565b5b6129be82612dff565b9050602081019050919050565b600081519050919050565b600082825260208201905092915050565b600082825260208201905092915050565b6000612a0382612c65565b9150612a0e83612c65565b92508261ffff03821115612a2557612a24612da1565b5b828201905092915050565b6000612a3b82612c93565b9150612a4683612c93565b9250827fffffffffffffffffffffffffffffffffffffffffffffffffffffffffffffffff03821115612a7b57612a7a612da1565b5b828201905092915050565b6000808291508390505b6001851115612ad057808604811115612aac57612aab612da1565b5b6001851615612abb5780820291505b8081029050612ac985612e10565b9450612a90565b94509492505050565b6000612ae482612c93565b9150612aef83612c93565b9250612b1c7fffffffffffffffffffffffffffffffffffffffffffffffffffffffffffffffff8484612b24565b905092915050565b600082612b345760019050612bf0565b81612b425760009050612bf0565b8160018114612b585760028114612b6257612b91565b6001915050612bf0565b60ff841115612b7457612b73612da1565b5b8360020a915084821115612b8b57612b8a612da1565b5b50612bf0565b5060208310610133831016604e8410600b8410161715612bc65782820a905083811115612bc157612bc0612da1565b5b612bf0565b612bd38484846001612a86565b92509050818404811115612bea57612be9612da1565b5b81810290505b9392505050565b6000612c0282612c93565b9150612c0d83612c93565b925082821015612c2057612c1f612da1565b5b828203905092915050565b6000612c3682612c73565b9050919050565b6000612c4882612c73565b9050919050565b60008115159050919050565b6000819050919050565b600061ffff82169050919050565b600073ffffffffffffffffffffffffffffffffffffffff82169050919050565b6000819050919050565b600067ffffffffffffffff82169050919050565b600060ff82169050919050565b600069ffffffffffffffffffff82169050919050565b6000612cdf82612ce6565b9050919050565b6000612cf182612c73565b9050919050565b6000612d0382612d0a565b9050919050565b6000612d1582612c73565b9050919050565b6000612d2782612c9d565b9050919050565b82818337600083830152505050565b60005b83811015612d5b578082015181840152602081019050612d40565b83811115612d6a576000848401525b50505050565b612d7982612dff565b810181811067ffffffffffffffff82111715612d9857612d97612dd0565b5b80604052505050565b7f4e487b7100000000000000000000000000000000000000000000000000000000600052601160045260246000fd5b7f4e487b7100000000000000000000000000000000000000000000000000000000600052604160045260246000fd5b6000601f19601f8301169050919050565b60008160011c9050919050565b7f4d7573742062652070726f706f736564206f776e657200000000000000000000600082015250565b7f4f6e6c792063616c6c61626c65206279206f776e657200000000000000000000600082015250565b7f4e6f2070726f706f7365642061676772656761746f722070726573656e740000600082015250565b7f4e6f206163636573730000000000000000000000000000000000000000000000600082015250565b7f496e76616c69642070726f706f7365642061676772656761746f720000000000600082015250565b612ef381612c2b565b8114612efe57600080fd5b50565b612f0a81612c4f565b8114612f1557600080fd5b50565b612f2181612c5b565b8114612f2c57600080fd5b50565b612f3881612c65565b8114612f4357600080fd5b50565b612f4f81612c93565b8114612f5a57600080fd5b50565b612f6681612cbe565b8114612f7157600080fd5b5056fea2646970667358221220dd6fb5560609c8cca27e2146d96c7a30bd4950d7afddc151d784612f392a878e64736f6c63430008040033",
  "linkReferences": {},
  "deployedLinkReferences": {}
}